:020000040000fa
:080000000002040000000000f2
:020000040000fa
:0400080012030000df
:020000040000fa
:04000c004c030000a1
:020000040000fa
:040010008403000065
:020000040000fa
:040014002e030000b7
:020000040000fa
:040018006803000079
:020000040000fa
:04001c008c0600004e
:020000040000fa
:04002000a003000039
:020000040000fa
:040024008c06000046
:020000040000fa
:040028008c06000042
:020000040000fa
:04002c008c0600003e
:020000040000fa
:040030008c0600003a
:020000040000fa
:040034008c06000036
:020000040000fa
:040038003c06000082
:020000040000fa
:04003c008c0600002e
:020000040000fa
:040040008c0600002a
:020000040000fa
:040044008c06000026
:020000040000fa
:040048005606000058
:020000040000fa
:04004c008806000022
:020000040000fa
:040050008c0600001a
:020000040000fa
:040054008c06000016
:020000040000fa
:040058008c06000012
:020000040000fa
:04005c008c0600000e
:020000040000fa
:040060008c0600000a
:020000040000fa
:040064008c06000006
:020000040000fa
:040068008c06000002
:020000040000fa
:04006c002e0400005e
:020000040000fa
:040070008c060000fa
:020000040000fa
:040074008c060000f6
:020000040000fa
:040078008c060000f2
:020000040000fa
:04007c008c060000ee
:020000040000fa
:040080008c060000ea
:020000040000fa
:04008400c4050000af
:020000040000fa
:04008800e20500008d
:020000040000fa
:04008c008c060000de
:020000040000fa
:040090008c060000da
:020000040000fa
:040094008c060000d6
:020000040000fa
:040098008c060000d2
:020000040000fa
:04009c008c060000ce
:020000040000fa
:0400a0008c060000ca
:020000040000fa
:0400a4008c060000c6
:020000040000fa
:0400a8008c060000c2
:020000040000fa
:0400ac008c060000be
:020000040000fa
:0400b0008c060000ba
:020000040000fa
:0400b4000006000042
:020000040000fa
:0400b8001e06000020
:020000040000fa
:0400bc008c060000ae
:020000040000fa
:0400c0008c060000aa
:020000040000fa
:0400c4008c060000a6
:020000040000fa
:0400c8008c060000a2
:020000040000fa
:0400cc008c0600009e
:020000040000fa
:0400d0008c0600009a
:020000040000fa
:0400d4008c06000096
:020000040000fa
:0400d8008c06000092
:020000040000fa
:0400dc008c0600008e
:020000040000fa
:0400e0008c0600008a
:020000040000fa
:0400e4008c06000086
:020000040000fa
:0400e8008c06000082
:020000040000fa
:0400ec008c0600007e
:020000040000fa
:0400f0008c0600007a
:020000040000fa
:0400f4008c06000076
:020000040000fa
:0400f8008c06000072
:020000040000fa
:0400fc008c0600006e
:020000040000fa
:040100008c06000069
:020000040000fa
:040104008c06000065
:020000040000fa
:040108008c06000061
:020000040000fa
:04010c008c0600005d
:020000040000fa
:040110008c06000059
:020000040000fa
:040114008c06000055
:020000040000fa
:040118008c06000051
:020000040000fa
:04011c008c0600004d
:020000040000fa
:040120008c06000049
:020000040000fa
:040124008c06000045
:020000040000fa
:040128008c06000041
:020000040000fa
:04012c008c0600003d
:020000040000fa
:040130008c06000039
:020000040000fa
:040134008c06000035
:020000040000fa
:040138008c06000031
:020000040000fa
:04013c008c0600002d
:020000040000fa
:040140008c06000029
:020000040000fa
:040144008c06000025
:020000040000fa
:040148008c06000021
:020000040000fa
:04014c008c0600001d
:020000040000fa
:040150008c06000019
:020000040000fa
:040154008c06000015
:020000040000fa
:040158008c06000011
:020000040000fa
:04015c008c0600000d
:020000040000fa
:040160008c06000009
:020000040000fa
:040164008c06000005
:020000040000fa
:040168008c06000001
:020000040000fa
:04016c008c060000fd
:020000040000fa
:040170008c060000f9
:020000040000fa
:040174008c060000f5
:020000040000fa
:040178008c060000f1
:020000040000fa
:04017c008c060000ed
:020000040000fa
:040180008c060000e9
:020000040000fa
:040184008c060000e5
:020000040000fa
:040188008c060000e1
:020000040000fa
:04018c008c060000dd
:020000040000fa
:040190008c060000d9
:020000040000fa
:040194008c060000d5
:020000040000fa
:040198008c060000d1
:020000040000fa
:04019c008c060000cd
:020000040000fa
:0401a0008c060000c9
:020000040000fa
:0401a4008c060000c5
:020000040000fa
:0401a8008c060000c1
:020000040000fa
:0401ac008c060000bd
:020000040000fa
:0401b0008c060000b9
:020000040000fa
:0401b4008c060000b5
:020000040000fa
:0401b8008c060000b1
:020000040000fa
:0401bc008c060000ad
:020000040000fa
:0401c0008c060000a9
:020000040000fa
:0401c4008c060000a5
:020000040000fa
:0401c8008c060000a1
:020000040000fa
:0401cc008c0600009d
:020000040000fa
:0401d0008c06000099
:020000040000fa
:0401d4008c06000095
:020000040000fa
:0401d8008c06000091
:020000040000fa
:0401dc008c0600008d
:020000040000fa
:0401e0008c06000089
:020000040000fa
:0401e4008c06000085
:020000040000fa
:0401e8008c06000081
:020000040000fa
:0401ec008c0600007d
:020000040000fa
:0401f0008c06000079
:020000040000fa
:0401f4008c06000075
:020000040000fa
:0401f8008c06000071
:020000040000fa
:0401fc008c0600006d
:020000040000fa
:040200008c06000068
:020000040000fa
:040204008c06000064
:020000040000fa
:040208008c06000060
:020000040000fa
:04020c008c0600005c
:020000040000fa
:040210008c06000058
:020000040000fa
:040214008c06000054
:020000040000fa
:040218008c06000050
:020000040000fa
:04021c008c0600004c
:020000040000fa
:040220008c06000048
:020000040000fa
:040224008c06000044
:020000040000fa
:040228008c06000040
:020000040000fa
:04022c008c0600003c
:020000040000fa
:040230008c06000038
:020000040000fa
:040234008c06000034
:020000040000fa
:040238008c06000030
:020000040000fa
:04023c008c0600002c
:020000040000fa
:040240008c06000028
:020000040000fa
:040244008c06000024
:020000040000fa
:040248008c06000020
:020000040000fa
:04024c008c0600001c
:020000040000fa
:040250008c06000018
:020000040000fa
:040254008c06000014
:020000040000fa
:040258008c06000010
:020000040000fa
:04025c008c0600000c
:020000040000fa
:040260008c06000008
:020000040000fa
:040264008c06000004
:020000040000fa
:040268008c06000000
:020000040000fa
:04026c008c060000fc
:020000040000fa
:040270008c060000f8
:020000040000fa
:040274008c060000f4
:020000040000fa
:040278008c060000f0
:020000040000fa
:04027c008c060000ec
:020000040000fa
:040280008c060000e8
:020000040000fa
:040284008c060000e4
:020000040000fa
:040288008c060000e0
:020000040000fa
:04028c008c060000dc
:020000040000fa
:040290008c060000d8
:020000040000fa
:040294008c060000d4
:020000040000fa
:040298008c060000d0
:020000040000fa
:04029c008c060000cc
:020000040000fa
:0402a0008c060000c8
:020000040000fa
:0402a4008c060000c4
:020000040000fa
:0402a8008c060000c0
:020000040000fa
:0402ac008c060000bc
:020000040000fa
:0402b0008c060000b8
:020000040000fa
:0402b4008c060000b4
:020000040000fa
:0402b8008c060000b0
:020000040000fa
:0402bc008c060000ac
:020000040000fa
:0402c0008c060000a8
:020000040000fa
:0402c4008c060000a4
:020000040000fa
:0402c8008c060000a0
:020000040000fa
:0402cc008c0600009c
:020000040000fa
:0402d0008c06000098
:020000040000fa
:0402d4008c06000094
:020000040000fa
:0402d8008c06000090
:020000040000fa
:0402dc008c0600008c
:020000040000fa
:0402e0008c06000088
:020000040000fa
:0402e4008c06000084
:020000040000fa
:0402e8008c06000080
:020000040000fa
:0402ec008c0600007c
:020000040000fa
:0402f0008c06000078
:020000040000fa
:0402f4008c06000074
:020000040000fa
:0402f8008c06000070
:020000040000fa
:0402fc008c0600006c
:020000040000fa
:040300008c06000067
:020000040000fa
:040304008c06000063
:020000040000fa
:040308008c0600005f
:020000040000fa
:04030c008c0600005b
:020000040000fa
:040310008c06000057
:020000040000fa
:040314008c06000053
:020000040000fa
:040318008c0600004f
:020000040000fa
:04031c008c0600004b
:020000040000fa
:040320008c06000047
:020000040000fa
:040324008c06000043
:020000040000fa
:04032800ca03000004
:020000040000fa
:04032c00fc030000ce
:020000040000fa
:10040000ef3921000eff22000e01880000000000dd
:10041000000020000000e000020032000001200087
:1004200020028800140007003d0207000000e000e1
:1004300003003a00c0092400010020000200370038
:100440000000200001002000810f70000100320038
:100450000f000700000020000000e0000200320052
:100460000000020000000000c82f02000000000091
:100470000040da000000fe00201920000000e0002b
:1004800002003200002020009001880000000600d9
:10049000a1028800800478000000eb001f003700f4
:1004a000e284440054a0b4009905ba00e2844400f8
:1004b00054a0b4009906ba00e284440054a0b400e9
:1004c0000006eb00476fde00fd07b200ae018800ba
:1004d000636ce10003003a000ad801000000eb0061
:1004e0000e003700606ce10008003a00004deb00a0
:1004f0000a05e800020039003420ec000af0a000f0
:100500008b05e900f9ff3e00040037006168e10057
:10051000010032000086eb000b00070019c7ba008b
:100520001905ba000e04e00003003a000a00e000da
:10053000dbff3a0000000600fe07b200ae028800b2
:100540008a047800f5ff37000cd0a300e20f4d00bd
:100550001c003b0089027800354dba000a05e8000e
:10056000020039003420ec000af0a0008b05e900fd
:100570000f003200254dba000a05e80002003900dc
:100580003420ec000af0a0008b05e90008003200de
:100590000c00e0000600320015cdba000a05e800a4
:1005a000020039003420ec000af0a0008b05e900bd
:1005b0008984e80054a0b4000b00e000e2ff3a0098
:1005c000000006009902ba00055d78008b05e9007d
:1005d000f7ff3200c82ade00055d78008b05e900d0
:1005e000f3ff32000c00e000f1ff320019ddba0029
:1005f000eeff3700000000000000000000000000d7
:1006000000000000000000000000000000000000ea
:1006100000000000000000000000000000000000da
:10062000000000003600f800809fbe00829fbe00e0
:10063000849fbe00869fbe00c028a9000000eb007a
:10064000252007004f03be004f02be004f01be0031
:100650004f00be003600f900004006003600f800ea
:10066000809fbe00829fbe00849fbe00869fbe000a
:1006700014200700c048a900100020001620070021
:100680004f03be004f02be004f01be004f00be0030
:100690003600f900004006003600f800809fbe00da
:1006a000829fbe00849fbe00869fbe00c068a900d6
:1006b00020002000082007004f03be004f02be00ac
:1006c0004f01be004f00be003600f900004006009a
:1006d0003600f800809fbe00829fbe00849fbe004f
:1006e000869fbe00c088a90030002000fa1f0700c6
:1006f0004f03be004f02be004f01be004f00be00c0
:100700003600f900004006003600f800809fbe0069
:10071000829fbe00849fbe00869fbe00c608a900bf
:1007200070002000ec1f07004f03be004f02be0008
:100730004f01be004f00be003600f9000040060029
:100740003600f800809fbe00829fbe00849fbe00de
:10075000869fbe00c508ab0003003200c508a90093
:10076000c0002000dc1f0700c488ab00030032007b
:10077000c488a900a0002000d71f0700c408ab0050
:1007800003003200c408a900b0002000d21f0700f7
:10079000ffff37003600f800809fbe00829fbe003a
:1007a000849fbe00869fbe003200f8003400f8002f
:1007b00010002000a00188000020200000d0fe00d2
:1007c000e0618000418280000100e0000100320011
:1007d000010001001808a9003400f9003200f900f6
:1007e0004f03be004f02be004f01be004f00be00cf
:1007f0003600f900004006003600f800809fbe0079
:10080000829fbe00849fbe00869fbe003200f8001b
:100810003400f80010002000a00188000020200013
:1008200000d0fe00f0618000318280000100e00015
:1008300001003200010001001828a9003400f9006d
:100840003200f9004f03be004f02be004f01be0050
:100850004f00be003600f900004006003600f800e8
:10086000809fbe00829fbe00849fbe00869fbe0008
:100870000228a90004e2ab000700320004e2a9004c
:100880001e30ef0040818000200090000008eb0047
:100890002830ef00b6003700f08080008000eb00c9
:1008a000eb0f5000e08f5800ae003e000006010044
:1008b0000b0037002300370049003700690037007c
:1008c000a50037008600370090003700a2003700ef
:1008d00092003700a30037001e0037002f003700ba
:1008e0002430ab00a2003a001081800040818800d3
:1008f00010417800a1022100824878009001900008
:10090000638188006600400010818800c1382100a2
:10091000810f500002003a00003821001081880049
:100920002410a900108180002010e30001003a008b
:100930002430a8000002a80020002000f0808800d9
:100940008b0037000022a80020002000f0808800e3
:10095000870037000402e20004003d002670ec002e
:1009600040002000541c0700810037008081800077
:1009700081810a0000000000a11088000008a30087
:1009800003003200b0002000f080880078003700bb
:1009900030002000f0808800750037000402e2007b
:1009a00004003d002670ec0040002000421c0700bf
:1009b0006f0037000022a800808180004800de0020
:1009c00066006000100fb3008081880010c0b30083
:1009d0002ef0b70020002000f0808800640037006f
:1009e0002ed0bf00e14f500009003200608180002e
:1009f0009000780081818800200190009281880019
:100a0000a0409000f30221008149780001003700e6
:100a10002e70ef0080818000f10f2000810f5000c8
:100a2000070036004800de0066006000000fb300db
:100a3000a0108800a0002000f08088004c00370043
:100a4000a01088000008a30003003200500020001e
:100a5000f08088004600370030002000f0808800d9
:100a6000430037000402e20005003d002670ec0060
:100a700005e2a900500020000f1c07003c003700d1
:100a80002fd0bf008040e90081417800f2022100b0
:100a9000034978000004e0000c003a0060002000e8
:100aa0002c30b4002a50ed002af0b70003003a00c1
:100ab00020002000001c07002d0037000022a800a5
:100ac00020002000f08088002900370090818000fd
:100ad000b080fb00a11088009081880024003700be
:100ae0000402e20005003d002670ec0040002000fa
:100af000f11b070005e2a9001d0037000062a800f5
:100b000080002000f080880019003700800020005d
:100b1000f08088000062a80015003700c110800036
:100b20009081800001587800908188002f50ed005e
:100b30002ff0b7000400320000a2a90060002000de
:100b4000f08088000200370000a2a800cf1b070039
:100b50000082a8000600370020002000d61b0700f6
:100b6000030037002670ec0060002000d21b070055
:100b70004f03be004f02be004f01be004f00be003b
:100b80003600f900004006003600f800809fbe00e5
:100b9000829fbe00849fbe00869fbe0002e8ab001d
:100ba00002003200a708070002e8a9004f03be00b8
:100bb0004f02be004f01be004f00be003600f900dc
:100bc000004006003600f800809fbe00829fbe00f5
:100bd000849fbe00869fbe000308ab000200320067
:100be0005f1e07000308a9004f03be004f02be00ae
:100bf0004f01be004f00be003600f9000040060065
:100c00003600f800809fbe00829fbe00849fbe0019
:100c1000869fbe000468ab0002003200690807002e
:100c20000468a9004f03be004f02be004f01be0082
:100c30004f00be003600f900004006003600f80004
:100c4000809fbe00829fbe00849fbe00869fbe0024
:100c50000488ab0002003200671e07000488a90068
:100c60004f03be004f02be004f01be004f00be004a
:100c70003600f900004006003600f800809fbe00f4
:100c8000829fbe00849fbe00869fbe00de110700cb
:100c90000088a9004f03be004f02be004f01be00f6
:100ca0004f00be003600f900004006003600f80094
:100cb000809fbe00829fbe00849fbe00869fbe00b4
:100cc0000130210010002000eb1807008b180700ee
:100cd0000108a9000000eb000330210000017800aa
:100ce0008000400081804100820878000000e80018
:100cf000f00f5000faff3a004f03be004f02be0053
:100d00004f01be004f00be003600f9000040060053
:100d10000128a900004006000040da000000fe00a3
:100d2000000005001400200014043700f4ff2f0019
:100d3000120437000001be00960007000470a700ef
:100d400003f0a1006509b100160032000d00350066
:100d50006828e10006003500f0ff2f00f1ff2700b2
:100d60000300e00013003b00010028000000050024
:100d700000004000818048008502e900fcff3a0045
:100d800008003700f88f420002003c008000eb00b2
:100d9000000005008100d1000080d3008502e8003a
:100da000fcff3a000300e00002003b00600010007e
:100db000e0801800000006000001be00750007007a
:100dc0000470a70003f0a10003f8a30013003a0089
:100dd0006509b10010003200090035006928e10002
:100de000020035000100280000000500000040005e
:100df000818048008502e900fcff3a0000000600ff
:100e0000f88f4200050035008100d1000080d3003a
:100e10008502e800fcff3a00000006008000eb00bd
:100e2000000005004f89de0082017800ee033700e4
:100e3000889fbe008a9fbe0000827000040271007d
:100e400004827100260032000004be000200be00d1
:100e50006011b8006b092000950220000182cf00cc
:100e60000a0039000541b1000082cf0007003900b7
:100e70000541b1000982cf00040039000541b100ed
:100e80000882cf00010039000541b100054252003f
:100e9000120032000a003b0082817100610164008f
:100ea0008100d1000080d3008984d3000884d3005e
:100eb0008b05e8000442e800f7ff3a00070037001e
:100ec0000804440089844c000000480081804800e8
:100ed0008b05e9000442e900f9ff3a00070007002a
:100ee0004f05be004f04be00000006006011b800b0
:100ef000cfff370004002000a0033700810020004e
:100f0000618055000b003d000b00200061fe2f00aa
:100f10000100e1001d003400828171006101640064
:100f20008904d1000884d3000000e800faff3a00e9
:100f30007100200061006400030070000200600086
:100f40000900320061044400e0844c000988a500d7
:100f5000050032008b05e8006808e10002003a0055
:100f60008904d1000884d300f20f20000258e10068
:100f700005003d00c75ddd00f907b20089807500fe
:100f800008007800000006000bf827008b007800ae
:100f900000000500c70ade00f107b200f50fb2003d
:100fa00008003200e1cf4200020032000170a000d0
:100fb00024000500810f70000100320004080500c4
:100fc00044000500810f700002003a001400050083
:100fd0008502e9000000400081c04800fcff3b00a2
:100fe0000170a000240005006022b8000602200065
:100ff0000000d0008180d2000482d2008582d2001d
:101000000000a0000202520083825a000300310057
:101010000202420083824a000000a1000603e900a8
:10102000f3ff3a000000060007f82700078361007d
:101030000638e10004003a00f707200087836100ca
:101040008703710001003a0003f0a200889fbe00f0
:101050008a9fbe008c9fbe00470ade000480a1006c
:10106000c71ade000580a100070028000785600080
:1010700087856100f70f20000720e1009e00320005
:101080000728e1009c003200010678000400e0001f
:10109000b4003200f7072000878060000170a000d4
:1010a0000500e000c0003200f707200087816100e2
:1010b0000370a000050652000f003a000b50e1003b
:1010c0000b0032000308e10002003a000200e100d8
:1010d0007e00320002045000838458000400310076
:1010e0000001fd008101fd008402fd008a05fd0074
:1010f0006044b800210037000520e10005003d00f4
:101100000001fd008101fd008402fd008a05fd0053
:10111000050652007a60e100050035000170a1006b
:101120004722dd00848070008a80700063003700f1
:101130006044b800ef02660007ff2f000706660054
:101140000500e00006003400f08312008714dd0083
:101150000511de00071bdd00060171008519de00a8
:101160007060e10005003500090478008204780011
:10117000030178008001eb00700656000b50e1007f
:1011800003003a000200400083804800040037005a
:1011900060041400e0841c000200580083805800a2
:1011a0000188a300060032008100d1000080d30036
:1011b0008984d3000884d3000402e80027003700a4
:1011c0000178a30025003a000100e000030032008e
:1011d0008186cf00698656000a0037008c00200007
:1011e0000000e00004003a0009007800880478005c
:1011f0000004eb00700252008086cf000d0646000e
:101200000c06e9007060e1000600350080007800ff
:1012100009007800880478000004eb00700656008e
:10122000700252000c00e0000c0034008c08dd005d
:10123000f00316000703de00868070000c00dd005e
:10124000074bde00060070008c4cdd000743de001b
:10125000868474000c44dd000c0252006120e10021
:1012600020003500610160000700280087816400cc
:10127000f7ff270087836400070374000300e00082
:101280000600320082037300040032000000e80010
:10129000e08048000188a3000e003a00f70f20000c
:1012a0000720e1004a003d000170a1004722dd0057
:1012b000810072008a8070000000be004f06be00f0
:1012c0004f05be004f04be00000006006000b800dd
:1012d000faff37008100d1000080d3000402e8004b
:1012e000eeff37000401780089017400a1010700b6
:1012f0008a807000f1ff3700f701070007027800cd
:101300000001fd008101fd00f30107008702780064
:10131000850372000778a300040032000001fd007d
:101320008101fd0006020700e4ff3700850362002b
:101330000768a300080032000b50e10003003200f0
:10134000f0ff2f00f1ff2700dcff37000001fd0058
:101350008101fd00d9ff37000468a300d7ff3200e8
:10136000faff3700f8ff2700888360000b003a007f
:101370000000e00009003a008303640082837300e8
:10138000020032000200be00ccff37000b50e1002b
:10139000ceff3a000200be00c8ff37001400200054
:1013a000810064003eff3700f8ff2700888361005a
:1013b00004003a000200e00002003a008c007800cd
:1013c000beff3700150020008301640039ff37009d
:1013d00001f827000000200081007500b7ff3700ea
:1013e000889fbe008a9fbe008c9fbe001b0020000d
:1013f0000202be0005866800060028000606660098
:101400004709de00f20fb200820032000243e8001a
:1014100080003200c729de00f30fb2007d003200e9
:101420000343e8007b003200f107b2000170a00026
:10143000f507b2000570a000c708dd004903de0013
:10144000868070004700dd00c72add004923de00ea
:10145000868272004722dd0003055100040350001c
:10146000858358000300310000004000818048005f
:101470000a05e9008c1f78008a9fbe000400500016
:10148000858058000402420085824a000000400026
:10149000818048000005eb000004be006033b80006
:1014a0000406be000d48e1005600310005000900a9
:1014b0004dccd8000c01b8000d02b8008481410069
:1014c00060824a008283530003045c0084845c00d1
:1014d00060055d000a00e00025003a008005780004
:1014e0000d40e100490031008800780007007800d5
:1014f000050009004d88d8000c01b8000d02b800a5
:101500008481410060824a006003110083835b0094
:1015100004045c00e0845c000900e00021003a0063
:101520004f01be000300e0002b003200e301600029
:10153000070673008c8171000100320064007000a6
:101540004200de004e5edd000c007000c258de007e
:1015500001e0a00083010700cf01780081807100c5
:101560004f06be004f05be004f04be00000006003f
:101570008c8343000d044c00e0844c0060054d005a
:101580000000e9000a00e000d4ff32008c83430031
:101590000d044c00e0844c0060054d000000e900a3
:1015a000ceff37000c0343008d834b0060044c00da
:1015b000e0844c000000e9000900e000d8ff3200a0
:1015c0000c0343008d834b0060044c00e0844c000e
:1015d0000000e900d2ff37004200de004e5edd0071
:1015e0000c007000c258de0001e0a000cf017800be
:1015f0000300e000daff320060001000e080180015
:10160000d7ff3700f0ff2f00aaff3700f0ff2f00b1
:10161000b9ff37000404be002f01070087067800d9
:101620000004fd008104fd002b0107000783660014
:101630000678a300030032000960a7000800be007e
:101640002c0037000d78a300020032000800be0015
:10165000280037000778a30026003a0001f0a10017
:1016600009f0a1000668a30003003200f1ff270083
:10167000f0ff2f00baff37000d68a300030032000f
:101680000800be008c807000b5ff37000768a3001b
:1016900007003a000648a30003003200f1ff2700cc
:1016a000f0ff2f00aeff37000d48a300030032000b
:1016b0006000b8008c807000a9ff37000748a300c5
:1016c0000400320001f82700000020008c80700028
:1016d000a3ff3700760107000004fd008104fd0030
:1016e00002057800720107000802be008a01780036
:1016f00059ff37000160a00012022000928288008a
:1017000097ff37000100e000120032000500e00002
:1017100010003200889fbe008a9fbe008c9fbe00d2
:101720000006eb0001f8a300030032006000100087
:10173000e08018000cf0a00005f8a30003003200c0
:1017400060021200e0821a000cf0a2008005eb009b
:1017500041ff37006000b800020005000383680005
:101760000700280007036300470ade000480a10089
:10177000c71ade000580a100f70f20000720e10056
:10178000420032000728e10040003200889fbe007e
:101790008a9fbe008c1f7800f107b200f307b200e9
:1017a0000400e000640032000170a0000500e000c9
:1017b000680032000370a00085054200eb07b1000d
:1017c0000204b8000302b8008484440060854a0023
:1017d000020ab800848444000a854a00030ab8005b
:1017e00004054500040033000804d0008984d200b9
:1017f0000a85d2008b05e9006158e1003d00350003
:1018000002102000090161000308200089816100a5
:10181000f70720008783640008867300c84cde0049
:10182000c853dd00878474004855de000300e000e3
:101830000600320082037600040032008904e800ca
:1018400060054d000a88a3000c003a00f70f200045
:101850000758e10044003d000a70a100c75ddd00ab
:101860000a8575008a007300090078004f06780029
:101870004f05be004f04be00000006000a05d1005f
:101880008984d3008b05e800f0ff3700881f7800bb
:101890000604780090000700070278000001fd00b0
:1018a0008101fd008c00070087027800850372002b
:1018b0000778a300050032000001fd008101fd0052
:1018c0009f0007004f0478000000060085037200a7
:1018d0000748a30003003200f0ff2f00f1ff2700ac
:1018e000f8ff37000000200001f827008880700012
:1018f000f4ff3700880178004848dd0080817100de
:101900004848de00c850dd0001007000c850de000d
:10191000060478000b01780016000700888070002c
:10192000d2ff37000500e00005003200170020005c
:101930003a0007009dff370081037000f9ff3a006d
:10194000860078004f0678004f05be004f04be00a9
:101950000000050083037100f9ff3200270020001a
:101960002e00070094ff370001f8270086807000e2
:10197000f4ff37000100e000260032006101110091
:101980007810e10023003c006022b8007010e100f4
:101990000400350080027800010078008000eb0030
:1019a000700151000200e0000900340070031100d2
:1019b000062add00822ade008603dd0087827200af
:1019c0000200de00860bdd00070070008208de00ea
:1019d00084817100f4ff2700048262008481710019
:1019e00004002800848262006102600005f0a60005
:1019f0000000060004827100070032000000e800c9
:101a0000e0804800000006000002be006000b80050
:101a1000efff37006000b80000000600889fbe009e
:101a20000004eb006138e10016003a000100e0001c
:101a300008003a00c800de004800dd0088002000f1
:101a40000100e00003003a00c800de004800dd00ad
:101a5000680444008184cf00e98454000600340007
:101a60008908dd00f08314008703de0087807000a2
:101a70000900dd0009044400610214004f04be00a7
:101a8000000006000300e00008003a00c811de0074
:101a90004811dd00880020000300e00003003a0048
:101aa000c811de004811dd00680444008384cf00c3
:101ab000e9845400060034008919dd00f083140025
:101ac0008713de00878171000911dd0009044400dd
:101ad000e1021400e9ff37002700200001f0a70011
:101ae00017002000470bde00f60fb20004003200a2
:101af0000643e8000a0032004702b3000000060077
:101b000001037800f607b2000603700002003a00f5
:101b10000703b300000006008702b30000000600c0
:101b200001037800f607b2000603700002003200dd
:101b30000770a000000006000760a000000006007b
:101b40000478a300040032000578a30003003200eb
:101b50000168a30001003a000200be000160a0007d
:101b60000000060081017000270032008002eb00b7
:101b700001f8a3000300320060001000e0801800ac
:101b800015002000f407200002024200200034006b
:101b9000f7032000870360000604200000036300b1
:101ba00002082000000161004700de00c909dd00d5
:101bb00000807100c708de000600e0000800320067
:101bc00087037100060032001000b0000180b000f1
:101bd0000188a30002003200c108de000402e80010
:101be000f107b200f30f20000320e10003003d00e5
:101bf0004722dd00810072002900370001f827002c
:101c00000000eb00260037006000b800000006006e
:101c1000680212007f20e100020034006000b8007a
:101c20001f0037006011b8007020e100040035008b
:101c300080017800010078008000eb007002520003
:101c40000400e00009003400f00312000719dd0071
:101c50008419de000703dd00868171000400de00c8
:101c6000070bdd00060070008408de00f7ff270088
:101c70008383630087037100060028000303630069
:101c8000070032000700e00003003a006101600035
:101c900002817300020032001000b0000180b00029
:101ca0000500a6000000060001f0a00000000600ec
:101cb0004f0ade004709de00f107b200f20fb20062
:101cc0000b003200f207b1000170a000c708dd0070
:101cd000c901de00838070004700dd000400a6001b
:101ce0000000060060001000e08018000000060000
:101cf000810f700001003a00000006008182cf00d1
:101d00000500e00010003e008082cf00ee8242001d
:101d10007028e1000400390007003e0080007800d0
:101d20000000eb000e003700708312008600de001a
:101d30000500dd000a003700708352008600dd00d8
:101d40000000eb0006003700e28252008508dd004b
:101d5000708312000603de00868070000500dd003f
:101d60007507b0000501ea000400a60000000600a7
:101d700060001000e080180000000600889fbe0090
:101d80008a9fbe00841f7800270007004f0078005c
:101d900011003300f0ff2f00838f6c0006003b0022
:101da000040565000a00a7000800370009f0a60036
:101db0001000200008003700820f5400838f5c0061
:101dc000030039001000200001003e000000200048
:101dd00009f0a7000000ea004f05be004f04be0056
:101de0000000e00000000600881f7800030478006f
:101df0000300e00007003d0060001000e0801800d4
:101e000060011900e081190002003b0001f02d0083
:101e10000300370006fc070008f0a70001f0a0004f
:101e20004f047800000006000004be0059fc0700c3
:101e30000003be000405be000200be0055fc070002
:101e4000844f750000000600000006000800fa003c
:101e5000889fbe008a9fbe008c9fbe000004be000b
:101e60000200be00e2b79f00f3b79f00f6ff070035
:101e70008102780005f0a100000278000c0020002b
:101e80000df827006fb19700ffb197008c0f52003b
:101e90008d8f5a000a003e000800be00eaff0700ce
:101ea0008102780005f0a100000278006fb1970070
:101eb000ffb197008c0f52008d8f5a00030036003f
:101ec0000800be0061fc0700980037000203be0056
:101ed0000000200001f82300800f5300818f5b0079
:101ee00003003a000800be00980007008f0037008a
:101ef0000802be004e3dde000b0020006000b8006e
:101f0000620065004f4dde000b0020000a057000e6
:101f10008b8570008500780001f0a1000800780032
:101f2000e00f5000e08f580007003a00e20f550024
:101f3000e08f5d0033003200e30f5500e08f5d005d
:101f40007b003a00320037008702780005f0a100dc
:101f500006027800e00f5200e08f5a003b0032008a
:101f60008c0f52008d8f5a002c003a00840f5000c5
:101f7000858f580018003a00e20f5500e08f5d0091
:101f800009003200e30f5500e08f5d0009003200c8
:101f9000e10f5500e08f5d005b003200b8fd2000ce
:101fa00099f423006200370002002000030424009b
:101fb000020037000200200003042c00b0fd2000c6
:101fc00091042400e5fd07000200200003e823003f
:101fd000e2fd070055003700e20f5500e08f5d007d
:101fe00008003200e30f5500e08f5d00080032006a
:101ff0006044b800e10f5500e08f5d004c003a00ee
:1020000044003700b8fd2000990424004800370040
:10201000b8fd200099042c00450037000600200080
:1020200007d020000403430085834b0086bf9f0038
:1020300097bf9f00800f5300818f5b000300390022
:102040008c0f50008d8f580005003a000a08a3003d
:1020500033003200b8fd200099fc2b00340037001b
:102060006033b80062036500e00f5300e08f5b004f
:10207000080032000c0020000dd0200000034600b4
:1020800081834e006000b800840f5300858f5b0091
:10209000040039000800be00d1fc07000101070060
:1020a0002a000700e10f5500e08f5d0005003200b7
:1020b0001e003900e20f5500e08f5d000b003a0072
:1020c000030037000004be0009f0a200180037002a
:1020d000e2d22b00b33b2300dcfb07000001be0073
:1020e000b0fd20009104240005003700e2d22b004f
:1020f000b33b2300d5fb0700b2fd2000930424006e
:10210000c9fb070009003700b8fd200099f42b0037
:1021100007003700080020000900280004003700ed
:10212000b8fd200099fc2300010037000004be0028
:102130000800be004f06be004f05be004f04be00a3
:102140000080fa0000000600000006000c00fa0003
:10215000889fbe008a9fbe008c9fbe000004be0008
:102160004f09de0003002000e2b79f00f3b79f0095
:10217000810678000df0a10000067800f0ff2f0026
:10218000f1c72400800f5600818f5e0010003600da
:102190000800be00ecff07008101780003f0a100f9
:1021a000000178000000200001f82700800f510096
:1021b000818f5900b5003e00020020000338200046
:1021c000a0fd200091fc2300a0fb0700a600370023
:1021d000f0ff2f00f1ed2300800f5600818f5e008d
:1021e00011003e000085eb00f0ff2f00f197230067
:1021f000800f5600818f5e0055003e00f0ff2f00db
:10220000f1072000800f5600818f5e009f003e0086
:102210000801be000800be0050fd0700c0b79f00c7
:10222000d1b79f00990037000800be009d0007004d
:102230000004be00f0ff2f0071f92300800f56004c
:10224000818f5e0025003e00f0ff2f00f1f2230099
:10225000800f5600818f5e0011003e000801be0015
:102260000800be0079fb07000200200003f82300ed
:102270006dfb07000005be000200200003002400e3
:102280000800be0071fb07000001be000a00be008e
:1022900053fc07000004be000005eb002c003700d3
:1022a0000200200003f823000800be005efb0700c8
:1022b0000005be000200200003f823000800be0055
:1022c00062fb07000001be000a00be0044fc0700dc
:1022d0000004be001a0020001d003700f0ff2f0090
:1022e000b1012400800f5600818f5e0012003e0075
:1022f0000200200003fc23000800be004afb070088
:102300000005be000200200003fc23000800be0000
:1023100012fd07000200200003f823004bfb07001a
:102320000001be000a00be002dfc07000004be0034
:102330002a002000060037000801be00000020002f
:1023400001f82b0026fc07000004be003a00200024
:102350000801be000800be0000fd07000002be002c
:102360000001be0084bf9f0095bf9f00fbfc0700db
:102370000006be0052c22a00c3d72300f7fc0700a4
:10238000d2502f0013e1230030fb07000001be00f4
:102390000c00be00f1fc070092aa2a00a3ea230069
:1023a0002afb07000001be000fba97009fba9700f2
:1023b0000400be00e9fc07000002be0072242100f8
:1023c000a3dd2b000c00be0084bf9f0095bf9f00c3
:1023d000e2fc070082a92c00c3e4230012fb0700e3
:1023e0000001be000c00be00dcfc07000001be00c6
:1023f0000fba97009fba9700e10f450009003a0015
:102400000400be0011fb07000001be000800be0072
:10241000d2fc07000001be000800be0002fb07005e
:10242000190037004255dd000c3621000a0646002f
:102430000400be0005fb07000001be000800be004e
:10244000c6fc0700023721000a0541001a01be0040
:10245000f5fa07000801be00f3fa07000001be000c
:102460001c00be00f0fa07006fb19700ffb19700a3
:10247000e00f5100e08f5900030032000004be005d
:1024800009f0a200010037000004be000800be00f1
:102490004f06be004f05be004f04be000080fa008c
:1024a000000006000001be008300780001f0a100da
:1024b00002007800000006000400fa00889fbe00b9
:1024c0008a9fbe000004be004709de000300200012
:1024d000f20fb200f207b100f60f510030003c00dd
:1024e0000200e0001c003500faff2f00fb0720006f
:1024f0000201e900030033008b85d1000a85d30077
:10250000fbff37008b8164000a016000e00f51007f
:10251000e08f5900220032000200200003b827009b
:10252000cafa0700a0bf9f00b1bf9f00e00f540090
:10253000e08f5c0002003d000a0444008b844c00e4
:102540000a85ea008b85ea008b8064000a0064003b
:102550000004be00110037000200200003b827006d
:10256000bafa0700a0bf9f00b1bf9f00e00f540060
:10257000e08f5c00020035006044b80007003700bf
:102580000800440089804c00e00f5000e08f5800a4
:10259000020032000800200009f82b000800be00ed
:1025a0004f05be004f04be000080fa000000060088
:1025b000000006000400fa00889fbe008a9fbe004b
:1025c0008c9fbe000004be000205be000206410052
:1025d00083864900e00f5600e08f5e001400320051
:1025e0000200be0082bf9f0093bf9f00f0ff070064
:1025f0008102780005f0a1000002780000002000b0
:1026000001f827000fb997009fb99700800f52007b
:10261000818f5a0006003e000802be00474bde00d4
:10262000070020000680fb00e14f430005003a0050
:102630000800be0049fc07000001be0068fb07005f
:10264000090037000801440089814c008c0f5100bb
:102650008d8f590006003e0074003a006011b800ea
:102660000800be003dfc07000004be006f003700fc
:102670000000e00013003a004949dd00c741de00d8
:10268000830171004941dd00030037000000e900cb
:102690000201410083814900e00f5100e08f5900a1
:1026a000faff3d00e10010000401be008100e900d6
:1026b000030033000201410083814900fbff370022
:1026c0000400370085017800f307b20008017800a4
:1026d0000370a000475bde00070020008600780042
:1026e000f10fb20012003a00495bdd00c753de0073
:1026f000870373004953dd00030037008100e900c0
:102700000603430087834b00e00f5300e08f5b001c
:10271000faff3d00618310000603e9000300330067
:102720000a0545008b854d00fbff37001000370080
:102730008b037800f707b2000a0378000605be0095
:102740000b70a0000a003700e00f5300e08f5b0021
:1027500004003500e00f5300e08f5b00bfff320044
:102760000601be0002014100838149000000e9002a
:102770000a0351008b835900810f5000f2ff3c0087
:10278000e00f5300e08f5b0003003d0009003700bd
:102790000601be0007003700e00f5300e08f5b002a
:1027a000fbff3a00adff3700020141008381490081
:1027b0000000e900471bde0007002000e00f530087
:1027c000e08f5b00f8ff32000000e0000a003400f8
:1027d0000600200007f82f000201430083814b0010
:1027e000cf80de00c700dd00000020000201700085
:1027f0008381700006003700610010000000e900ce
:10280000030033008301d1000281d300fbff3700b6
:10281000000020000100280085836000000378008c
:1028200006017100878171000204be000800be002d
:102830004f06be004f05be004f04be000080fa00e8
:1028400000000600889fbe008a9fbe0080047800ba
:102850000200e0005b00320001407800814c78000b
:1028600082814400f1f99f00e20f510055003600cb
:1028700091449800a1449800e1f99f00d1f99f008c
:10288000e60f51004f003600b1449800c1f99f0097
:10289000e80f51004b0036000905ea0063056500aa
:1028a0000a8444000a055100c1ff2f00010565009c
:1028b0000080fb008000eb001210200013102000ad
:1028c00044000700008cbe000a01440060b99f006c
:1028d00071b99f00e80f55003a00360020049800b7
:1028e00031049800400498005104980020b99f00da
:1028f00031b99f0040b99f0051b99f00f80f5500b2
:10290000300036006004980071049800000c9800b4
:10291000110c9800200c9800310c9800400c980085
:10292000510c980020b19f0031b19f0040b19f0031
:1029300051b19f0060b19f0071b19f0000b99f002d
:1029400011b99f0064016400780141000204440051
:10295000020555006011b8000203be000002be006f
:102960000403be006022b800000072008180720083
:10297000020173008381730010003700009cbe00c9
:102980000294be004004980051049800620498002c
:1029900073049800000c9800110c9800220c980009
:1029a000330c9800400c9800510c9800620c980071
:1029b000730c98000a02b1000802b000ff0f550026
:1029c000eeff3e00090078004f05be004f04be0038
:1029d00000000600020ab900001bb9000200b8009e
:0c29e0008100420081004300000006005e
:020000040000fa
:1029ec00000000004f0000009e000000ed00000001
:1029fc003c0100008b010000d901000028020000fe
:102a0c0077020000c60200001503000063030000fb
:102a1c00b2030000000400004f0400009d040000fd
:102a2c00ec0400003a05000088050000d605000003
:102a3c002406000072060000c00600000e0700000d
:102a4c005b070000a9070000f60700004308000020
:102a5c0090080000dd0800002a090000770900003a
:102a6c00c30900000f0a00005c0a0000a80a00005d
:102a7c00f40a00003f0b00008b0b0000d60b00008b
:102a8c00210c00006c0c0000b70c0000010d0000c4
:102a9c004c0d0000960d0000e00d0000290e00000a
:102aac00730e0000bc0e0000050f00004e0f00005e
:102abc00960f0000df0f0000271000006e100000c2
:102acc00b6100000fd100000441100008b11000036
:102adc00d1110000171200005d120000a2120000bc
:102aec00e81200002d13000071130000b613000053
:102afc00f91300003d14000081140000c414000000
:102b0c0006150000491500008b150000cc150000bf
:102b1c000e1600004f1600008f160000cf16000096
:102b2c000f1700004f1700008e170000cd17000084
:102b3c000b1800004918000087180000c41800008a
:102b4c00011900003d19000079190000b5190000a9
:102b5c00f01900002b1a0000661a00009f1a0000e2
:102b6c00d91a0000121b00004b1b0000831b000035
:102b7c00bb1b0000f21b0000291c0000601c0000a5
:102b8c00961c0000cb1c0000001d0000351d000031
:102b9c00691d00009d1d0000d01d0000031e0000db
:102bac00351e0000671e0000981e0000c91e0000a4
:102bbc00fa1e0000291f0000591f0000881f00008a
:102bcc00b61f0000e41f0000112000003e20000092
:102bdc006a20000096200000c1200000ec200000bc
:102bec001621000040210000692100009221000004
:102bfc00ba210000e1210000082200002f22000071
:102c0c00552200007a2200009f220000c3220000ff
:102c1c00e72200000a2300002d2300004f230000b0
:102c2c007023000091230000b2230000d123000088
:102c3c00f12300000f2400002d2400004b24000081
:102c4c006824000084240000a0240000bb240000a1
:102c5c00d5240000ef2400000925000022250000e7
:102c6c003a25000052250000692500007f25000050
:102c7c0095250000aa250000bf250000d3250000e3
:102c8c00e6250000f92500000b2600001d2600009b
:102c9c002e2600003e2600004e2600005d26000079
:102cac006c2600007a26000087260000942600007f
:102cbc00a0260000ab260000b6260000c0260000af
:102ccc00ca260000d3260000db260000e326000005
:102cdc00ea260000f1260000f7260000fc26000082
:102cec000127000005270000082700000b27000023
:102cfc000d2700000f2700001027000010270000f0
:042d0c0020000000a3
:020000040000fa
:102d10002be3a80061e3a80097e3a800cde3a80097
:102d200003e4a80039e4a80000000600e30f500007
:102d30001000320005003e00e10f50000900320093
:102d4000e20f500012003a0008003700e50f500073
:102d50000c00320009003900e60f50000c003a0068
:102d60000a003700711a880009003700211c88000a
:102d700007003700d11d880005003700811f88003b
:102d8000030037003121880001003700e12288006c
:102d90000000060055140700220320000300200055
:102da00091f807006011b800000006004f140700fa
:102db00002352c00030020008bf807006011b800da
:102dc000000006009809ab00080032004714070015
:102dd000108688002186880000ff2f009809b60021
:102de0000010a000c04c8800150037003f140700f9
:102df0000001be00610c21008288be001101be00ee
:102e00001086800021868000800f5100818f59003c
:102e100007003600348680004586800012868000d8
:102e200023868000600d21000218520003905a0092
:102e300000ff2f009809b6000000a000c04c8800d9
:102e4000000006007409ab000800320027140700d8
:102e5000c0898800d189880000ff2f007409b6005e
:102e60000010a000a04b8800150037001f140700b9
:102e70000001be00c11321008288be001101be0006
:102e8000c0898000d1898000800f5100818f590056
:102e900007003600e4898000f5898000c28980003f
:102ea000d3898000c01421000218520003905a00f8
:102eb00000ff2f007409b6000000a000a04b88009e
:102ec000000006006315070000000600889fbe0092
:102ed0000004be00b2fd200093fc230091f7070020
:102ee0000000e0001e003d0062fe2500d32f2400fc
:102ef0000800be0019fa07000004be006011b80007
:102f00008af707000000e0000600350002002000fc
:102f100003f023000800be004cf8070085f7070007
:102f2000050037000200200003f023000800be0067
:102f30003df807007ff7070000004000614f2900bf
:102f40000080400010007800cf80de00b5f7070059
:102f500072712b00138d230000fa070079003700ef
:102f6000b2fd2000930424000800be006df70700a6
:102f70000000e00026003d0062fe2500d32f240063
:102f80000800be00f5f907000004be006011b8009b
:102f900066f707000000e0000a003500020020008c
:102fa00003f023000800be0028f8070061f70700bf
:102fb000e218200003002000000051008180590029
:102fc000090037000200200003f023000800be00c3
:102fd00015f8070057f70700e2182000030020004b
:102fe000000051008180590000004000614f29001d
:102ff0000080400010007800cf80de0089f70700d5
:1030000072712b00138d2300d4f907004d00370097
:1030100042be2c00630924000800be0041f70700ef
:103020000000e00022003d0062fe2500d32f2400b6
:103030000800be00c9f907000004be006011b80016
:103040003af707000000e000080035000200200009
:1030500003f023000800be00fcf7070035f7070067
:10306000e018b1000180b100070037000200200025
:1030700003f023000800be00ebf707002df7070060
:10308000e018b1000180b10000004000614f29004c
:103090000080400010007800cf80de0061f707005c
:1030a00072712b00138d2b00acf90700250037003f
:1030b00062fe2500d32f24000800be00a7f90700f8
:1030c0000004be006011b80018f707000000e0001f
:1030d0000a0035000200200003f023000800be00b3
:1030e000daf7070013f70700c231200003002000c1
:1030f00000005100818059000900370002002000c3
:1031000003f023000800be00c7f7070009f7070017
:10311000c2312000030020000000510081805900ce
:1031200000004000614f290000804000100078003e
:10313000cf80de003bf7070072712b00138d2b0050
:1031400086f907004f04be00000006008181d1000f
:103150000081d30064a8250075f325000201520008
:1031600083815a007df9070000000600fe874700b2
:10317000889fbe008a9fbe008c9fbe008e1f780075
:1031800000077800b2b79f00c3b79f0001ff070098
:103190000203be000002be00d0af9f00e1af9f005f
:1031a000f2af9f0083b79f000e1090009e1090001a
:1031b0002e119000be1190000000520081805a0034
:1031c00002015b0083815b0019f70700f2262100f2
:1031d00033a8230061f90700f226210033a8230059
:1031e0005ef907000004be006011b800cdf60700cc
:1031f0000000e000070034000200200003f023007c
:103200000800be00c9f607000000e00004003c0012
:1032100005003700f826210039a8230002003700f6
:10322000f826210039a823001e01be003fb09700f8
:10323000cfb0970049f90700b0af9f00c1af9f0022
:103240002e089000be08900090b79f00a1b79f0085
:103250002e019000be0190000800be003ff907005b
:103260000200200003f023003cf907000005be0027
:103270003fb19700cfb197001fb09700afb0970054
:1032800072f707000001be000a00be0033f9070014
:103290006e099000fe0990006cf707000006be0062
:1032a0000e0990009e099000d2b79f00e3b79f00df
:1032b00003f0a200f2b79f0083bf9f000001be0091
:1032c0007fb097008fb8970098f607000000e000e5
:1032d00007003c005fb19700efb197000c00be0003
:1032e00092f607000000e00004003c0005003700f3
:1032f0007fb697008fbe9700020037005fb6970039
:10330000efb697003fa99700cfa997000c00be0029
:103310004ef707000005be001fb19700afb1970040
:103320003fb09700cfb097003ff707004e019000e5
:10333000de01900009f907000801be0028f8070027
:103340000001be000a00be0040f707000005be00f5
:103350000001be007fb097008fb8970073f607009a
:103360000000e00007003c000a01be005fb09700cb
:10337000efb097006bf607000000e0000400350096
:10338000050037007fb597008fbd9700020037001a
:103390005fb59700efb597006e029000fe029000b7
:1033a000f4b79f0085bf9f006011b8000400be0005
:1033b0005ef607000000e0002c0034004e0b900089
:1033c000de0b9000d6b79f00e7b79f000601be0056
:1033d0000a00be0014f707000801be0000f807004d
:1033e0000001be0090b79f00a1b79f007fb097007b
:1033f0008fb897004bf607000000e0000a003d0080
:103400007fb197008fb997000800be00d3f807007e
:103410000001be005fb09700efb097000bf7070008
:103420000005be00110037007fb097008fb89700ed
:1034300001f0a2001fb19700afb197003bf6070063
:103440000000e000090034007fb197008fb99700b9
:103450000800be00c1f807000001be005fb0970081
:10346000efb09700f0f607000005be006c0f980063
:103470007d0f98004a0f98005b0f98003fb29700ad
:10348000cfb29700240f9800350f98005fa89700df
:10349000efa897007fa997008fb1970000179800b9
:1034a0001117980022179800331798000a00be00e1
:1034b0004f0778004f06be004f05be004f04be0008
:1034c000ef01b10000000600ea874700889fbe00b8
:1034d0008a9fbe008c9fbe008e1f78000007780078
:1034e0000206be002bfe07000203be000002be0063
:1034f000d0b79f00e1b79f00f2b79f0083bf9f0046
:103500002e009000be0090004e019000de01900061
:103510000000520081805a0002015b0083815b0041
:1035200043f60700f226210033a823008bf807009a
:10353000f226210033a8230088f807000004be000b
:103540006011b800f7f507000000e0001100350039
:10355000a299290093e923000800be00f3f50700b3
:103560000000e0000d0034006c0798007d07980013
:103570005fb09700efb097007fb197008fb99700c9
:1035800020079800310798004207980053079800d9
:1035900022003700f826210039a823001e05be00ae
:1035a0000801be000a00be00a8f607000001be0028
:1035b0000a00be008af707000004be006e019000fa
:1035c000fe01900065f807000005be000801be007e
:1035d0000000200001f8230093f607000c01be0054
:1035e0005ef807000001be000a00be0097f6070063
:1035f00060079800710798005fb29700efb29700dc
:103600007fb397008fbb9700240798003507980079
:1036100046079800570798000006be000c00be0041
:103620004f0778004f06be004f05be004f04be0096
:10363000af00b10000000600889fbe008a9fbe0058
:10364000b2fd2000930c2400dafb07000004be004a
:103650000005be006011b800b4f507000000e000ee
:1036600005003d00b2fd2000930c24000800be00c0
:1036700076f607000005be000a00be004f05be003a
:103680004f04be0000000600889fbe000004be007c
:1036900002007800cf80de00e2f507000801be00de
:1036a0002ef807004f04be0000000600889fbe00f1
:1036b000610720008181b90041062100028040009d
:1036c000103a9000a03a900000017800022c90007f
:1036d000922c90000400be0004f607000801be0012
:1036e0003ff70700b2fd2000930c24001bf80700f1
:1036f0004f04be0000000600ec874700889fbe0014
:103700008a9fbe008c9fbe008e1f78000007780045
:103710006c0720008cf6b9004a0621000c00450019
:10372000001a9000901a9000201b9000b01b90008f
:10373000f0189000002190009021900060189000f7
:103740000000520081805a0002015b0083815b000f
:10375000b7f50700f226210033a82300fff7070082
:10376000f226210033a82300fcf707000004be0066
:103770000c0545002a289000ba2890000801be00d8
:103780006af507000000e000060034006207200030
:1037900082f1b900a0062100000741001e00be0012
:1037a0003e0037006007200080f0b90080bf9f0016
:1037b0004004b0004e06210000004700f0b79f0013
:1037c0001001be000fba970004004700d0209000ff
:1037d00040209000c402b00004024700e4b79f00fc
:1037e000840378001703be00c6b79f00d7b79f00b9
:1037f0000fbb970006024700441e9000d41e9000a5
:10380000000051008180590086f50700b2fd2000bc
:10381000930c2400d1f707000005be000c01be0088
:103820004fb09700dfb09700fff507000001be0022
:103830000a00be0005f607000801be00e8f6070012
:103840000001be000fb8970080004700b20098004a
:10385000c3009800efb197001301be00c218980092
:10386000d3189800ffb297001502be00c42098003c
:10387000d5209800011a9000911a9000211b900009
:10388000b11b9000e4189800f51898008620980065
:103890009720980031009000c10090004f077800f9
:1038a0004f06be004f05be004f04be00cf00b10062
:1038b00000000600889fbe00610720008181b900da
:1038c000410621000280400020229000b02290009a
:1038d0000001780062149000f21490000400be0011
:1038e00050f50700b2fd2000930c24009bf7070061
:1038f0000801be00d5f507004f04be000000060019
:103900000400fa00889fbe008a9fbe008c9fbe0004
:10391000000678000c00780064ff07000005be0078
:103920001cfd07000203be000002be00410621008c
:103930006207200082e1b90082814000841998006a
:1039400095199800a6199800b719980003017800f6
:10395000f2119000621190000a00be00b2f507005b
:103960000004be00f3f4070000f0a7000000ea0026
:10397000cf80de002bf50700c2972d00030a24003c
:10398000eaf407000000e00018003400600720009f
:1039900080e0b900810a2100010040001001be0052
:1039a00082bf9f0093bf9f006011b8000800be0057
:1039b000def407000081eb008081eb000000e000f6
:1039c00002003c00120020000300200060072000dd
:1039d00080e0b900810a2100010040000fba970081
:1039e0009fba97000418410005904900490621003c
:1039f0006807200088e4b90088864400ea16980029
:103a0000fb1698000c007800aaff07000001be001a
:103a1000fa0044008980400001007800aafe0700f7
:103a200090069800a10698000c00780032ff07006d
:103a30000001be006a0444008904440009007800c3
:103a4000a1fe0700b0069800c10698004f06be0010
:103a50004f05be004f04be000080fa0000000600c3
:103a6000889fbe008a9fbe008c1f7800e40a200059
:103a70008482b90062162100820042001104e00035
:103a800006003a00e10a20008180b9008116210079
:103a9000010040001000be0017003700eb0a2000b4
:103aa0008b80b9000c162100000046001025900004
:103ab0006007200080d0b90041062100008140004d
:103ac000226990000080400010049000a004900043
:103ad0000200fb00cf80de00d2f407000801be0028
:103ae0001ef707008bd5b9000a0646006c19900036
:103af000fc1990004cf507004f0678004f05be00fa
:103b00004f04be0000000600f2874700889fbe00f9
:103b10008a9fbe008c9fbe008e1f7800c0b79f009a
:103b20000205be000404be00f6b79f0087bf9f00d9
:103b30006011b8000400be00eef407000000e000d1
:103b40001c0032000801be000800be0003f7070099
:103b50000006be000a01be000a00be00fff6070014
:103b60000001be000c00be0038f5070077fd07001d
:103b7000e20a2000cfb197008299b9008317210093
:103b8000030141001201be0015f607000006be0049
:103b90000801be000a00be00acf807007fb1970024
:103ba0008fb9970029f50700a3fe07000005be00a6
:103bb00010003700e00a20004fb2970080a0b90043
:103bc00081172100010040001001be000a00be0064
:103bd00003f607000006be00b2fd200093fc2300a0
:103be0007fb097008fb8970018f5070092fe070086
:103bf0000005be0022a9200063f823000a00be00d1
:103c0000f7f507002cfa07000200200003f8230054
:103c10000ef5070047f40700000778006170b9004f
:103c200080f407000004be0022a9200063f82300ee
:103c3000caf607000a01be00fbf40700a3fc070058
:103c4000723d2b00d3fd2300c4f607000c01be001b
:103c5000c2f60700f0b79f0081bf9f00020020005e
:103c600003f823000800be00eff4070022a920009b
:103c700063f82300b9f607000001be000a00be0089
:103c8000e9f4070091fc0700723d2b00d3fd2300ef
:103c9000b2f607000c01be00b0f60700d0b79f00d7
:103ca000e1b79f007fb197008fb997000000200017
:103cb00001f82300dcf407005fb19700efb1970033
:103cc000d9f40700e30f57003000320005003c0034
:103cd000e10f570009003200e20f570075003a006b
:103ce00018003700e50f57004e0032003a0035004b
:103cf000e60f57006f003a005c003700020020001a
:103d000003f0230095f607000005be005fb19700a1
:103d1000efb197007fb097008fb89700cbf4070002
:103d20000a01be00c9f407000004be000a01be007b
:103d30005fb09700efb09700c4f407000006be0024
:103d40005f0037000200200003f0230083f6070025
:103d50000005be007fb197008fb99700bbf4070044
:103d60000004be005fb19700efb197007fb09700ed
:103d70008fb89700b5f407000001be000a00be002e
:103d8000b2f407000006be004d003700020020001c
:103d900003f0230071f607000004be005fb1970036
:103da000efb197007fb097008fb89700a7f4070096
:103db0000001be000800be00a4f407000006be001b
:103dc0000801be005fb09700efb097009ff40700b6
:103dd0000005be003a0037000200200003f0230077
:103de0005ef607000004be000001be007fb0970031
:103df0008fb8970095f407000006be005fb19700ea
:103e0000efb197007fb097008fb897008ff407004d
:103e10000001be000800be008cf407000005be00d3
:103e2000270037000200200003f023004bf60700b4
:103e30000006be005fb19700efb1970083f4070062
:103e40000004be005fb19700efb197007fb097000c
:103e50008fb897007df407000001be000c00be0083
:103e60007af407000005be001500370002002000ac
:103e700003f0230039f607000006be005fb197008b
:103e8000efb197007fb097008fb897006ff40700ed
:103e90000c01be006df407000004be000c01be0062
:103ea0007fb097008fb8970068f407000005be0048
:103eb000030037006055b8000a06be000a04be00c1
:103ec000ee0a20004fb297008ea2b900f4b79f000f
:103ed000780042000e16210000004700d0b79f0076
:103ee000800078001100be00a0b79f00b1b79f000e
:103ef00004014700c2b79f00220ab00092b79f009a
:103f00000200200003f023000800be0046f4070072
:103f10002fb19700bfb1970010f6070002c0210033
:103f2000436f24000df60700020020000312240056
:103f30002bf5070002c02100436f240043f4070063
:103f40009fb197008089be005fb297001404be0045
:103f50004fb09700600ab000a0b79f000200200099
:103f600003f023000c00be002ff407000801be0080
:103f7000faf5070002c02100436f2400f7f507009f
:103f8000020020000312240015f5070002c02100e2
:103f9000436f24002df407002fb197000089be0065
:103fa000dfb197001304be004fb69700ac0ab00013
:103fb0000200200003f023000a00be001af40700ec
:103fc0000801be00e5f5070002c02100436f240090
:103fd000e2f50700020020000312240000f50700ac
:103fe00002c02100436f240018f40700008ebe00b9
:103ff0007fb2970004004700a090900010909000be
:104000006df307007fb2970004014700800078003d
:104010006288900045fb07007fb1970002004700cf
:10402000c09090003090900063f307007fb297003b
:104030000401470080007800728890003bfb070075
:104040007fb1970002004700e090900050909000f0
:1040500059f307007fb297000407470080007800fb
:104060000e90900031fb07004f0778004f06be000e
:104070004f05be004f04be002f01b1000000060036
:10408000f4874700889fbe008a9fbe008c9fbe00b9
:104090008e1f7800000778000204be003dfb070079
:1040a00090b79f00a1b79f00b2b79f00c3b79f0012
:1040b000e00a200080f0b900411921000100400011
:1040c0003002be002003be00d4b79f00e5b79f00ba
:1040d000f6b79f0087bf9f001fb09700afb0970053
:1040e0003fb19700cfb1970051f307000005be0024
:1040f0005fb09700efb097007fb197008fb997003e
:104100004bf307000001be000a00be00c6f3070023
:10411000f226210033a8230090f50700f2262100a3
:1041200033a823008df507000005be006011b8001c
:10413000fcf207000000e00007003400020020004d
:1041400003f023000a00be00f8f207000000e000c0
:1041500004003c0005003700fa2621003ba823009c
:1041600002003700fa2621003ba82300e00a2000c5
:1041700080f0b90081162100010040001001be004e
:104180000800be00a8f307006011b800e7f20700be
:104190000000e00009003500e00a200080f0b900ce
:1041a00081162100010040001001be000800be0081
:1041b0009df307000006be0009003700e00a20005a
:1041c00080f0b90081162100010040001001be00fe
:1041d0000800be0094f307000006be000df0a20028
:1041e000e00a200080f0b9004117210001004000e2
:1041f0001000be000a01be0058f507000001be0015
:104200000c00be00c9f207000000e0003a003400d4
:10421000e00a200080f0b900811621000100400072
:104220001006be001001be000800be007ef30700ad
:104230006011b800bbf207000000e0000f0035007d
:10424000e00a200080f0b900811621000100400042
:104250001001be000800be0073f307006011b80033
:10426000b2f207006044b8000000e000050034002e
:104270000800200009f82300020037000800200091
:1042800009f82b00e00a200080f0b900d0b79f00a9
:1042900000037800740043000716210000804300eb
:1042a00080b79f00000178001200be000a01be0026
:1042b0002af507000001be000800be0027f5070030
:1042c0000001be000c00be0060f307000001be004c
:1042d000051621005fb2970084804200c20098005a
:1042e000d30098008fb397001703be00e600980034
:1042f000f700980009003700e00a200080f0b900bc
:1043000001162100008040004800980059009800e4
:104310006011b8006200980073009800ec0a200059
:104320008cf6b9000a1621000c004500400c9000e4
:10433000d00c9000a0059000d000900040009000ac
:10434000bdfc07000b017800cffc07000003be0096
:104350006022b8000801be000e007800eafd0700e8
:104360000c0545001fb09700afb097003fb1970014
:10437000cfb19700201d9800311d9800421d980074
:10438000531d98000800be004f0778004f06be007e
:104390004f05be004f04be004f01b10000000600f3
:1043a000889fbe008a1f78008c1f78000004780068
:1043b00008007800bdfc0700100020003310070043
:1043c00008007800b9fc07004a0621006c072000ad
:1043d0008cc6b9008c044500c01c9800d11c980004
:1043e0006cfa0700e01c9800f11c980082249800e9
:1043f0009324980010002000161007000800780091
:10440000aafc070010002000201007000800780018
:10441000a6fc0700e0149800f11498005dfa07006c
:10442000801c9800911c9800a21c9800b31c980056
:1044300009057800ea2c9000080078009bfc070032
:10444000e40a200084cab9008216210082044200d6
:10445000808cbe004f0678004f0578004f04be00e8
:1044600000000600e10a20008180b900211a210025
:104470000100400090007800600720008088b900ab
:1044800001092100010040001000be0000000600ec
:10449000889fbe008a9fbe008c9fbe008e1f780042
:1044a000e40a20008482b9006216210082004200e2
:1044b0001104e00006003a00e10a20008180b90002
:1044c000c1172100010040001000be001e0037008f
:1044d000e20a20008281b9002a042000020545007a
:1044e000011621000a8540001a0278006b0720009f
:1044f0008ba2b9004c06210084014600a36e9000f7
:104500000281400022079000d6ff07000004be0091
:104510001a0078008b80b900000646004c2d9000f0
:10452000dc2d90000d00fb008e80b900cf80de00f6
:104530003cf207000801be0088f407000a01be0033
:10454000b9f207003cfc07004f0778004f06be0099
:104550004f05be004f04be0000000600e68747007e
:10456000889fbe008a9fbe008c9fbe008e1f780071
:1045700080067800e80a200088ecb900201a2100a3
:10458000000444001800780085ff07001801780037
:10459000600720008091b900e00821008000410000
:1045a000100020001104e000d7003a000005eb00e5
:1045b000e00a200080e8b900f80540000c16210050
:1045c0002004b000000746000b0046001004be00a7
:1045d0006150b90013f20700b2fd2000930c2400d3
:1045e0005ef4070002002000a33f24007cf30700d4
:1045f00042be2c006309240094f207000003be00b1
:104600006022b8000801be000d0078003efd0700e2
:104610001e007800bafc07001000200029fa0700ed
:104620000a05e800501f2000800f5500e6ff3a0001
:104630002003200023fa0700e80a200088ecb900d4
:10464000201a21000004440018007800acfc070088
:104650001800780097fc07000005be004c1f2000e2
:10466000e00a200080e8b900f800400081bf9f0008
:104670000e1621002004b00000004700f0b79f0094
:104680008fb89700010047001004be006160b900b8
:10469000e4f10700b2fd2000930c24002ff4070082
:1046a00002002000a33f24004df3070042be2c006f
:1046b0006309240065f207000003be006022b80011
:1046c0000801be000d0078000ffd0700ffb0970045
:1046d000110078008afc070010002000f9f907009b
:1046e0000c06e900e10f4600e5ff3a002003200038
:1046f000f4f90700e80a200088ecb900201a21002c
:1047000000044400180078007dfc070018007800c1
:1047100068fc07000004be000001be000a00be00e5
:1047200080f10700800078000000eb000100e0004d
:10473000750032000801be000a00be0079f10700d2
:104740000000e0000b003d00e20a200082e9b90011
:10475000201a21000000410090007800600720002e
:104760008088b900e10821000080400000c8eb000b
:104770000b003700e20a200082e9b900201a21006c
:104780000000410090007800600720008088b90098
:10479000e10821000080400011c0b300014878000a
:1047a000e20a200082e9b900201a2100000041003d
:1047b00090007800600720008088b9004106210041
:1047c0000080400011c0b300014878000801be001d
:1047d0000a00be0014f207000004be006011b80019
:1047e00052f107000000e00001003d0009f0a200c6
:1047f000e20a200082e9b9004016210000004100d1
:1048000010007800cf80de0086f107000001be00b6
:104810000800be00d1f30700b2fd2000930c240075
:1048200001f207006011b80040f107000000e0004d
:1048300006003500e20a200082e9b9004016210096
:10484000000041001000780005003700e20a200057
:1048500082e9b900401621000000410010007800f4
:10486000e80a200088ecb9000a162100080045007b
:1048700040099000d009900046be2c006709240032
:104880006022b8000d0078009ffc0700803e2000e9
:104890008cf907002804b000080545001a007800cc
:1048a00017fc07001a0078004c0621006b07200057
:1048b0008b80b900000046006044b800482898008a
:1048c000592898001a0578000d007800f0fe0700be
:1048d0008bd5b9000a064600402e9800512e98004c
:1048e0004001200077f907000803be000802be005f
:1048f0000801be000d00780083fc07004006200080
:1049000070f90700100020004f0778004f06be0026
:104910004f05be004f04be006f00b100000006004e
:10492000889fbe008a1f78008c1f780000047800e2
:1049300001162100e00a200080c0b900008140007b
:10494000040020000512240044099800550998002d
:104950000200780090209000600720008088b90055
:10496000e108210001004000190020001004e000cf
:104970000e003a0008007800f8fe07008004780076
:10498000ec0a20008cc6b9000a1621000c00450074
:1049900010209000dafb07000800780030fc0700c8
:1049a0000c05450040059800510598000900780065
:1049b0004f0678004f0578004f04be000000060047
:1049c000889fbe00e40a20008482b900621621009c
:1049d000820042001104e00006003a00e10a2000d3
:1049e0008180b900c1162100010040001000be0006
:1049f00012003700e10a20008180b900211a21004d
:104a00000100400090007800600720008088b90015
:104a10004106210000814000226990000080400092
:104a200030049000c00490000200fb00cf80de0044
:104a3000fcf007000801be0048f307004f04be0069
:104a400000000600f0874700889fbe008a9fbe00d6
:104a50008c9fbe008e1f7800f0b79f000206be003c
:104a6000ccf80700b0b79f00c1b79f00d2b79f0036
:104a7000e3b79f00e00a2000ffb2970080a8b900ca
:104a800041192100010040003fb29700cfb29700ca
:104a90005fb39700efb3970030045200b0845a0020
:104aa00030055b0090855b000800be000a01be0077
:104ab000dff00700f226210033a8230027f30700c8
:104ac000f226210033a8230024f307000004be00cf
:104ad0006011b80093f007000000e0000700340008
:104ae0000200200003f023000800be008ff0070042
:104af0000000e00004003c0005003700f82621001b
:104b000039a8230002003700f826210039a8230025
:104b1000ee0a20007fb397008eb3b90086bf9f00d6
:104b2000680043000e16210000004700a0b79f0058
:104b30001005be000801be000c00be0007f3070010
:104b40000001be000a00be0040f10700bafa0700eb
:104b50000fbc9700080547004005980051059800d4
:104b60006c0598007d0598004a0c9000da0c9000c6
:104b70002a019000afb197001300be00c2fa0700ef
:104b80000003be006022b8000801be007fb097009d
:104b9000ddfb07003fb29700cfb297005fb39700ed
:104ba000efb39700241d9800351d9800461d98000e
:104bb000571d98000800be004f0778004f06be0042
:104bc0004f05be004f04be000f01b10000000600fb
:104bd000881f780000047800e00a200080c0b90037
:104be000011a21000100400010407800634050008d
:104bf000e14f5000130036000800780024fe070043
:104c00000002be0003162100e20a200082c1b900a2
:104c100082804100e4089800f508980001027800bd
:104c200084007800640b9000f40b9000b422900094
:104c30002422900041219000d121900008007800aa
:104c4000b1fb07004f047800000006001000fa00d6
:104c5000889fbe008a1f78008c1f780000057800ae
:104c60000204be00e00a200080d0b900011a210031
:104c7000010040001040780063405000e14f5000b8
:104c8000080036000a00780075fb07000001be002e
:104c9000e40a200084d2b90080162100800042007e
:104ca0008288be000a00780045ff07000001be00b0
:104cb000e00a200080d0b900011621008080400069
:104cc000e2009800f30098001104e0006701320050
:104cd00002402e0003642c000800be0085f007008f
:104ce0000000e00005003200e00a200080d0b9009a
:104cf00001172100010040000888be00e00a2000e2
:104d000080d0b900011a2100010040001040780055
:104d1000e24f50003a00320005003e000004e0007f
:104d200008003200e14f500050013a0059003700ae
:104d3000e34f500072003200e44f50004b013a0044
:104d400080003700e00a200080d0b9000116210061
:104d500000814000020c9000920c900048219800c5
:104d6000592198000200780040099000d009900075
:104d700003f0a2000800be00eaef07000000e00018
:104d800007003d00e20a200082d1b900801721000f
:104d9000000041001004be0009f0a2000e00370020
:104da000e20a200082d1b9008017210000004100f2
:104db0001001be000800be00dcef07000000e000ac
:104dc00005003400e20a200082d1b90080172100da
:104dd000000041001004be00e00a200080d5b900a8
:104de000001621000a054000482598005925980022
:104df0006000b80020259800312598001b0137007d
:104e0000e00a200080d5b900081621000a004400fd
:104e100090089000000890000a014400d201900020
:104e20004201900080f007000001be004107200011
:104e30008a8040008880400001007800cbf807009d
:104e4000f0818800018288000a014400f20190008c
:104e50006201900074f007000001be00c104200050
:104e60008a8040008880400001007800bff8070079
:104e700010828800218288000a054400402598009d
:104e8000512598006000b800202598003125980031
:104e9000f6003700e00a200080d5b900081621008e
:104ea0000a0044009008900000089000f0818800fb
:104eb000018288000a014400f20190006201900022
:104ec00059f007000001be00c10420008a804000a4
:104ed0008880400001007800a4f807001082880054
:104ee000218288000a054400402598005125980039
:104ef0006000b8002025980031259800db003700bd
:104f0000ec0a20008cd6b900081621000c004400e1
:104f10000009900090099000f281880003828800c7
:104f20000a007800c7fe07000c04440040249800e3
:104f3000512498006000b800202498003124980083
:104f4000ca003700e20a200082d1b900c01a21004d
:104f5000000041000200200003f82b001000be00fa
:104f6000e4ef07000000e00037003200e40a200010
:104f700084d2b900031621000480410090089000fb
:104f8000000890000481410042039000d203900089
:104f9000c404b000030442000601be0022f0070072
:104fa0000001be000800780070f807006011b8002a
:104fb0005eef07000000e0000f003500e20a20006d
:104fc00082d1b900031621000280410090089000b0
:104fd0000008900002814100d2019000420190003f
:104fe00011f007000001be00080078005ff807001c
:104ff0000002be000f003700e20a200082d1b90093
:1050000003162100028041009008900000089000e3
:1050100002814100d20190004201900002f007009d
:105020000001be000800780050f807000002be0032
:1050300005f0a200e20a200082d1b9004117210048
:10504000810041008488be00e90a200089d0b900af
:1050500080047800708444000c1621000804460087
:105060001801be000a00780005fc0700d081880006
:10507000e18188001800be008904460049019000c3
:10508000d9019000e8ef07006011b80027ef070092
:105090000000e00012003500e20a200082d1b900d1
:1050a0008c01780002804100900890000008900078
:1050b00002814100d201900042019000daef070026
:1050c00018c0b300a2702d0033ca230015ef0700eb
:1050d0000000e000150035000044eb00130037002d
:1050e000e20a200082d1b9000116210002804000ae
:1050f000000a9000900a9000800078004101900022
:10510000d10190000400be0001f0a200c6ef07002c
:1051100018c0b300a2702d0033ca230001ef0700ae
:105120000000e000010035000044eb000804e0004e
:105130003a003200e20a200082d1b9006016210054
:10514000000041001004e0003d003a0017f707009e
:1051500080bf9f0091bf9f00a2bf9f00b3bf9f0071
:10516000e20a200082d2b900051621000483420021
:10517000061090009610900026119000b611900035
:10518000c0b79f00d1b79f00e2b79f00f3b79f0061
:105190008600780061149000f11490000fba970017
:1051a0009fba97002fbb9700bfbb97004fb09700e7
:1051b000dfb097006fb19700ffb197000002520077
:1051c00081825a0002035b0083835b00c4b79f00a7
:1051d000d5b79f00e6b79f00f7b79f000400be0059
:1051e0000601be0012ef07000801be00cfee070067
:1051f0000000e00012003400e00a200080d0b90076
:10520000011621000081400042129000d21290004d
:10521000440998005509980009003700e3f6070093
:105220000203be000002be00e20a200082d1b900e3
:1052300000182100800041008498be008690be00c6
:10524000e00a200080d5b900001621000a054000c0
:10525000d6818000e7818000462598005725980078
:105260006000b80020259800312598004f0678008e
:105270004f0578004f04be000080fa0000000600d1
:10528000889fbe008a9fbe008c9fbe008e1f780044
:10529000001a21000002eb000d162100ec0a20008c
:1052a0008402780008002000091a24006011b80068
:1052b00006002000071224008ca5b9008a0078009f
:1052c000818046000187e800050f7800be002000bd
:1052d000ae0098000a002000ab4f2400ea109800ae
:1052e000fb1098000a0020000bf82300ca10980059
:1052f000db109800a8089800b9089800c208980028
:10530000d308980041c0b30001487800dacc2c00e3
:10531000cbe423006a0098007b00980008089800fe
:105320001908980022089800330898000a00200005
:10533000ab4724004a0898005b089800660898006c
:105340007708980026189800371898004218980097
:10535000531898006218980073189800022098005b
:105360001320980026209800372098000402e800b7
:10537000e00ab000e20f5200cfff3a0060002000c8
:10538000e08f880050002000f08f8800300020005f
:105390000090880020002000509588001000200018
:1053a0006095880040002000709588004f077800c5
:1053b0004f06be004f05be004f04be0000000600b1
:1053c0001200980003087800000006000400fa00ac
:1053d0008180fb000100400090409000c1ff9f00d1
:1053e00090407800d1ff9f00b0409000e1ff9f0007
:1053f00020409000f0ff9f006fb89700ffb8970023
:105400000080fa0000000600ea874700889fbe007f
:105410008a9fbe008c9fbe008e1f78000c99800072
:105420004866de008040eb00c68aab0036013200e1
:1054300032998000100f2000800f510032013a0095
:1054400009998000e14f560008003a001099800049
:1054500000f0a7000000ea000000ea004f00de00b4
