:020000040000fa
:080000000002040000000000f2
:020000040000fa
:040008001a030000d7
:020000040000fa
:04000c005403000099
:020000040000fa
:040010008c0300005d
:020000040000fa
:0400140036030000af
:020000040000fa
:040018007003000071
:020000040000fa
:04001c00e4060000f6
:020000040000fa
:04002000a803000031
:020000040000fa
:04002400e4060000ee
:020000040000fa
:04002800e4060000ea
:020000040000fa
:04002c003604000096
:020000040000fa
:04003000e4060000e2
:020000040000fa
:04003400e4060000de
:020000040000fa
:04003800940600002a
:020000040000fa
:04003c00e4060000d6
:020000040000fa
:04004000e4060000d2
:020000040000fa
:04004400f8050000bb
:020000040000fa
:04004800ae06000000
:020000040000fa
:04004c00e0060000ca
:020000040000fa
:04005000e4060000c2
:020000040000fa
:04005400e4060000be
:020000040000fa
:04005800e4060000ba
:020000040000fa
:04005c00e4060000b6
:020000040000fa
:04006000e4060000b2
:020000040000fa
:04006400e4060000ae
:020000040000fa
:04006800e4060000aa
:020000040000fa
:04006c00600400002c
:020000040000fa
:04007000e4060000a2
:020000040000fa
:04007400e40600009e
:020000040000fa
:04007800e40600009a
:020000040000fa
:04007c00e406000096
:020000040000fa
:04008000e406000092
:020000040000fa
:040084003a06000038
:020000040000fa
:040088001c06000052
:020000040000fa
:04008c00e406000086
:020000040000fa
:04009000e406000082
:020000040000fa
:04009400e40600007e
:020000040000fa
:04009800e40600007a
:020000040000fa
:04009c00e406000076
:020000040000fa
:0400a000e406000072
:020000040000fa
:0400a400e40600006e
:020000040000fa
:0400a800e40600006a
:020000040000fa
:0400ac00e406000066
:020000040000fa
:0400b000e406000062
:020000040000fa
:0400b40076060000cc
:020000040000fa
:0400b80058060000e6
:020000040000fa
:0400bc00e406000056
:020000040000fa
:0400c000e406000052
:020000040000fa
:0400c400e40600004e
:020000040000fa
:0400c800e40600004a
:020000040000fa
:0400cc00e406000046
:020000040000fa
:0400d000e406000042
:020000040000fa
:0400d400e40600003e
:020000040000fa
:0400d800e40600003a
:020000040000fa
:0400dc00e406000036
:020000040000fa
:0400e000e406000032
:020000040000fa
:0400e400e40600002e
:020000040000fa
:0400e800e40600002a
:020000040000fa
:0400ec00e406000026
:020000040000fa
:0400f000e406000022
:020000040000fa
:0400f400e40600001e
:020000040000fa
:0400f800e40600001a
:020000040000fa
:0400fc00e406000016
:020000040000fa
:04010000e406000011
:020000040000fa
:04010400e40600000d
:020000040000fa
:04010800e406000009
:020000040000fa
:04010c00e406000005
:020000040000fa
:04011000e406000001
:020000040000fa
:04011400e4060000fd
:020000040000fa
:04011800e4060000f9
:020000040000fa
:04011c00e4060000f5
:020000040000fa
:04012000e4060000f1
:020000040000fa
:04012400e4060000ed
:020000040000fa
:04012800e4060000e9
:020000040000fa
:04012c00e4060000e5
:020000040000fa
:04013000e4060000e1
:020000040000fa
:04013400e4060000dd
:020000040000fa
:04013800e4060000d9
:020000040000fa
:04013c00e4060000d5
:020000040000fa
:04014000e4060000d1
:020000040000fa
:04014400e4060000cd
:020000040000fa
:04014800e4060000c9
:020000040000fa
:04014c00e4060000c5
:020000040000fa
:04015000e4060000c1
:020000040000fa
:04015400e4060000bd
:020000040000fa
:04015800e4060000b9
:020000040000fa
:04015c00e4060000b5
:020000040000fa
:04016000e4060000b1
:020000040000fa
:04016400e4060000ad
:020000040000fa
:04016800e4060000a9
:020000040000fa
:04016c00e4060000a5
:020000040000fa
:04017000e4060000a1
:020000040000fa
:04017400e40600009d
:020000040000fa
:04017800e406000099
:020000040000fa
:04017c00e406000095
:020000040000fa
:04018000e406000091
:020000040000fa
:04018400e40600008d
:020000040000fa
:04018800e406000089
:020000040000fa
:04018c00e406000085
:020000040000fa
:04019000e406000081
:020000040000fa
:04019400e40600007d
:020000040000fa
:04019800e406000079
:020000040000fa
:04019c00e406000075
:020000040000fa
:0401a000e406000071
:020000040000fa
:0401a400e40600006d
:020000040000fa
:0401a800e406000069
:020000040000fa
:0401ac00e406000065
:020000040000fa
:0401b000e406000061
:020000040000fa
:0401b400e40600005d
:020000040000fa
:0401b800e406000059
:020000040000fa
:0401bc00e406000055
:020000040000fa
:0401c000e406000051
:020000040000fa
:0401c400e40600004d
:020000040000fa
:0401c800e406000049
:020000040000fa
:0401cc00e406000045
:020000040000fa
:0401d000e406000041
:020000040000fa
:0401d400e40600003d
:020000040000fa
:0401d800e406000039
:020000040000fa
:0401dc00e406000035
:020000040000fa
:0401e000e406000031
:020000040000fa
:0401e400e40600002d
:020000040000fa
:0401e800e406000029
:020000040000fa
:0401ec00e406000025
:020000040000fa
:0401f000e406000021
:020000040000fa
:0401f400e40600001d
:020000040000fa
:0401f800e406000019
:020000040000fa
:0401fc00e406000015
:020000040000fa
:04020000e406000010
:020000040000fa
:04020400e40600000c
:020000040000fa
:04020800e406000008
:020000040000fa
:04020c00e406000004
:020000040000fa
:04021000e406000000
:020000040000fa
:04021400e4060000fc
:020000040000fa
:04021800e4060000f8
:020000040000fa
:04021c00e4060000f4
:020000040000fa
:04022000e4060000f0
:020000040000fa
:04022400e4060000ec
:020000040000fa
:04022800e4060000e8
:020000040000fa
:04022c00e4060000e4
:020000040000fa
:04023000e4060000e0
:020000040000fa
:04023400e4060000dc
:020000040000fa
:04023800e4060000d8
:020000040000fa
:04023c00e4060000d4
:020000040000fa
:04024000e4060000d0
:020000040000fa
:04024400e4060000cc
:020000040000fa
:04024800e4060000c8
:020000040000fa
:04024c00e4060000c4
:020000040000fa
:04025000e4060000c0
:020000040000fa
:04025400e4060000bc
:020000040000fa
:04025800e4060000b8
:020000040000fa
:04025c00e4060000b4
:020000040000fa
:04026000e4060000b0
:020000040000fa
:04026400e4060000ac
:020000040000fa
:04026800e4060000a8
:020000040000fa
:04026c00e4060000a4
:020000040000fa
:04027000e4060000a0
:020000040000fa
:04027400e40600009c
:020000040000fa
:04027800e406000098
:020000040000fa
:04027c00e406000094
:020000040000fa
:04028000e406000090
:020000040000fa
:04028400e40600008c
:020000040000fa
:04028800e406000088
:020000040000fa
:04028c00e406000084
:020000040000fa
:04029000e406000080
:020000040000fa
:04029400e40600007c
:020000040000fa
:04029800e406000078
:020000040000fa
:04029c00e406000074
:020000040000fa
:0402a000e406000070
:020000040000fa
:0402a400e40600006c
:020000040000fa
:0402a800e406000068
:020000040000fa
:0402ac00e406000064
:020000040000fa
:0402b000e406000060
:020000040000fa
:0402b400e40600005c
:020000040000fa
:0402b800e406000058
:020000040000fa
:0402bc00e406000054
:020000040000fa
:0402c000e406000050
:020000040000fa
:0402c400e40600004c
:020000040000fa
:0402c800e406000048
:020000040000fa
:0402cc00e406000044
:020000040000fa
:0402d000e406000040
:020000040000fa
:0402d400e40600003c
:020000040000fa
:0402d800e406000038
:020000040000fa
:0402dc00e406000034
:020000040000fa
:0402e000e406000030
:020000040000fa
:0402e400e40600002c
:020000040000fa
:0402e800e406000028
:020000040000fa
:0402ec00e406000024
:020000040000fa
:0402f000e406000020
:020000040000fa
:0402f400e40600001c
:020000040000fa
:0402f800e406000018
:020000040000fa
:0402fc00e406000014
:020000040000fa
:04030000e40600000f
:020000040000fa
:04030400e40600000b
:020000040000fa
:04030800e406000007
:020000040000fa
:04030c00e406000003
:020000040000fa
:04031000e4060000ff
:020000040000fa
:04031400e4060000fb
:020000040000fa
:04031800e4060000f7
:020000040000fa
:04031c00e4060000f3
:020000040000fa
:04032000e4060000ef
:020000040000fa
:04032400e4060000eb
:020000040000fa
:04032800d2030000fc
:020000040000fa
:04032c0004040000c5
:020000040000fa
:100400004f3721000eff22000e018800000000007f
:10041000000020000000e000020032000001200087
:100420002002880014000700690207000000e000b5
:1004300003003a00a003240001002000020037005e
:100440000000200001002000810f70000100320038
:100450000f000700000020000000e0000200320052
:100460000000020000000000fc2f0200000000005d
:100470000040da000000fe00201920000000e0002b
:1004800002003200002020009001880000000600d9
:10049000a1028800800478000000eb001f003700f4
:1004a000e284440054a0b4009905ba00e2844400f8
:1004b00054a0b4009906ba00e284440054a0b400e9
:1004c0000006eb00476fde00fd07b200ae018800ba
:1004d000636ce10003003a000ad801000000eb0061
:1004e0000e003700606ce10008003a00004deb00a0
:1004f0000a05e800020039003420ec000af0a000f0
:100500008b05e900f9ff3e00040037006168e10057
:10051000010032000086eb000b00070019c7ba008b
:100520001905ba000e04e00003003a000a00e000da
:10053000dbff3a0000000600fe07b200ae028800b2
:100540008a047800f5ff37000cd0a300e20f4d00bd
:100550001c003b0089027800354dba000a05e8000e
:10056000020039003420ec000af0a0008b05e900fd
:100570000f003200254dba000a05e80002003900dc
:100580003420ec000af0a0008b05e90008003200de
:100590000c00e0000600320015cdba000a05e800a4
:1005a000020039003420ec000af0a0008b05e900bd
:1005b0008984e80054a0b4000b00e000e2ff3a0098
:1005c000000006009902ba00055d78008b05e9007d
:1005d000f7ff3200c82ade00055d78008b05e900d0
:1005e000f3ff32000c00e000f1ff320019ddba0029
:1005f000eeff3700000000000000000000000000d7
:1006000000000000000000000000000000000000ea
:1006100000000000000000000000000000000000da
:1006200000000000000000000000000000000000ca
:10063000000000003600f800809fbe00829fbe00d0
:10064000849fbe00869fbe00c028a9000000eb006a
:10065000df2007004f03be004f02be004f01be0067
:100660004f00be003600f900004006003600f800da
:10067000809fbe00829fbe00849fbe00869fbe00fa
:10068000ce200700c048a90010002000d02007009d
:100690004f03be004f02be004f01be004f00be0020
:1006a0003600f900004006003600f800809fbe00ca
:1006b000829fbe00849fbe00869fbe00c068a900c6
:1006c00020002000c22007004f03be004f02be00e2
:1006d0004f01be004f00be003600f900004006008a
:1006e0003600f800809fbe00829fbe00849fbe003f
:1006f000869fbe00c088a90030002000b4200700fb
:100700004f03be004f02be004f01be004f00be00af
:100710003600f900004006003600f800809fbe0059
:10072000829fbe00849fbe00869fbe00c608a900af
:1007300070002000a62007004f03be004f02be003d
:100740004f01be004f00be003600f9000040060019
:100750003600f800809fbe00829fbe00849fbe00ce
:10076000869fbe00c508ab0003003200c508a90083
:10077000c000200096200700c488ab0003003200b0
:10078000c488a900a000200091200700c408ab0085
:1007900003003200c408a900b00020008c2007002c
:1007a000ffff37003600f800809fbe00829fbe002a
:1007b000849fbe00869fbe003200f8003400f8001f
:1007c00010002000a00188000020200000d0fe00c2
:1007d000e0618000818280000100e00001003200c1
:1007e000010001001808a9003400f9003200f900e6
:1007f0004f03be004f02be004f01be004f00be00bf
:100800003600f900004006003600f800809fbe0068
:10081000829fbe00849fbe00869fbe003200f8000b
:100820003400f80010002000a00188000020200003
:1008300000d0fe00f0618000718280000100e000c5
:1008400001003200010001001828a9003400f9005d
:100850003200f9004f03be004f02be004f01be0040
:100860004f00be003600f900004006003600f800d8
:10087000809fbe00829fbe00849fbe00869fbe00f8
:10088000c08280000000e000010032000000010092
:10089000303721001048e80011c0b3002037210094
:1008a000014878000028a9004f03be004f02be0097
:1008b0004f01be004f00be003600f90000400600a8
:1008c0003600f800809fbe00829fbe00849fbe005d
:1008d000869fbe000228a90004e2ab000700320098
:1008e00004e2a9003830ef00108280002000900060
:1008f0000008eb004230ef00b7003700c0818000f5
:100900008000eb00eb0f5000e08f5800af003e007e
:10091000000601000b003700240037004a003700b2
:100920006a003700a60037008700370091003700c3
:10093000a300370093003700a40037001f003700e2
:10094000300037003e30ab00a3003a00c103210065
:100950001100780010828800904178004204210044
:100960000349780010019000328288006600400040
:100970008008780021362100810f500002003a00e3
:1009800060352100e08188003e10a900e0818000f0
:100990003a10e30001003a003e30a8000002a8002f
:1009a00020002000c08188008b0037000022a800b2
:1009b00020002000c0818800870037000402e20088
:1009c00004003d004070ec0040002000471c070080
:1009d000810037005082800081810a000000000001
:1009e000a11088000008a30003003200b00020001e
:1009f000c08188007800370030002000c081880066
:100a0000750037000402e20004003d004070ec0075
:100a100040002000351c07006f0037000022a800ae
:100a2000508280004800de0066006000100fb300b6
:100a30005082880010c0b30048f0b70020002000aa
:100a4000c08188006400370048d0bf00e14f5000eb
:100a500009003200308280009001780053828800c3
:100a6000a000900061828800a041900092042100c3
:100a700003497800010037004870ef005082800081
:100a8000f10f2000810f5000070036004800de0003
:100a900066006000000fb300a0108800a0002000d6
:100aa000c08188004c003700a01088000008a30017
:100ab0000300320050002000c0818800460037004b
:100ac00030002000c0818800430037000402e200ab
:100ad00005003d004070ec0005e2a9005000200038
:100ae000021c07003c00370049d0bf008040e900ed
:100af0008141780092042100034978000004e0005d
:100b00000c003a00600020004630b4004450ed0074
:100b100044f0b70003003a0020002000f31b070058
:100b20002d0037000022a80020002000c08188008e
:100b30002900370060828000b080fb00a11088008f
:100b400060828800240037000402e20005003d00b6
:100b50004070ec0040002000e41b070005e2a90003
:100b60001d0037000062a80080002000c0818800be
:100b70001900370080002000c08188000062a800b2
:100b800015003700c1108000608280000158780095
:100b9000608288004950ed0049f0b700040032003f
:100ba00000a2a90060002000c08188000200370078
:100bb00000a2a800c21b07000082a80006003700a0
:100bc00020002000c91b0700030037004070ec0024
:100bd00060002000c51b07004f03be004f02be008f
:100be0004f01be004f00be003600f9000040060075
:100bf0003600f800809fbe00829fbe00849fbe002a
:100c0000869fbe0000e8ab000500320011c0b300b3
:100c10000037210001487800cf08070000e8a9004c
:100c20004f03be004f02be004f01be004f00be008a
:100c30003600f900004006003600f800809fbe0034
:100c4000829fbe00849fbe00869fbe000308ab004b
:100c500002003200671d07000308a9004f03be0011
:100c60004f02be004f01be004f00be003600f9002b
:100c7000004006003600f800809fbe00829fbe0044
:100c8000849fbe00869fbe0002e8ab0002003200d7
:100c9000621d070002e8a9004f03be004f02be001c
:100ca0004f01be004f00be003600f90000400600b4
:100cb0003600f800809fbe00829fbe00849fbe0069
:100cc000869fbe000488ab00020032008c1d070026
:100cd0000488a9004f03be004f02be004f01be00b2
:100ce0004f00be003600f900004006003600f80054
:100cf000809fbe00829fbe00849fbe00869fbe0074
:100d00000468ab0002003200871d07000468a900d8
:100d10004f03be004f02be004f01be004f00be0099
:100d20003600f900004006003600f800809fbe0043
:100d3000829fbe00849fbe00869fbe00cb1107002d
:100d40000088a9004f03be004f02be004f01be0045
:100d50004f00be003600f900004006003600f800e3
:100d6000809fbe00829fbe00849fbe00869fbe0003
:100d7000612d210010002000cc1807006c1807001e
:100d80000108a9000000eb00632d2100000178009c
:100d90008000400081804100820878000000e80067
:100da000f00f5000faff3a004f03be004f02be00a2
:100db0004f01be004f00be003600f90000400600a3
:100dc0000128a900004006000040da000000fe00f3
:100dd00000000500140020002d043700f4ff2f0050
:100de0002b0437000001be00960007000470a70026
:100df00003f0a1006509b100160032000d003500b6
:100e00006828e10006003500f0ff2f00f1ff270001
:100e10000300e00013003b00010028000000050073
:100e200000004000818048008502e900fcff3a0094
:100e300008003700f88f420002003c008000eb0001
:100e4000000005008100d1000080d3008502e80089
:100e5000fcff3a000300e00002003b0060001000cd
:100e6000e0801800000006000001be0075000700c9
:100e70000470a70003f0a10003f8a30013003a00d8
:100e80006509b10010003200090035006928e10051
:100e900002003500010028000000050000004000ad
:100ea000818048008502e900fcff3a00000006004e
:100eb000f88f4200050035008100d1000080d3008a
:100ec0008502e800fcff3a00000006008000eb000d
:100ed000000005004f89de0082017800070437001a
:100ee000889fbe008a9fbe000082700004027100cd
:100ef00004827100260032000004be000200be0021
:100f00006011b8006b092000950220000182cf001b
:100f10000a0039000541b1000082cf000700390006
:100f20000541b1000982cf00040039000541b1003c
:100f30000882cf00010039000541b100054252008e
:100f4000120032000a003b008281710061016400de
:100f50008100d1000080d3008984d3000884d300ad
:100f60008b05e8000442e800f7ff3a00070037006d
:100f70000804440089844c00000048008180480037
:100f80008b05e9000442e900f9ff3a000700070079
:100f90004f05be004f04be00000006006011b800ff
:100fa000cfff370004002000b90337008100200084
:100fb000618055000b003d000b00200061fe2f00fa
:100fc0000100e1001d0034008281710061016400b4
:100fd0008904d1000884d3000000e800faff3a0039
:100fe00071002000610064000300700002006000d6
:100ff0000900320061044400e0844c000988a50027
:10100000050032008b05e8006808e10002003a00a4
:101010008904d1000884d300f20f20000258e100b7
:1010200005003d00c75ddd00f907b200898075004d
:1010300008007800000006000bf827008b007800fd
:1010400000000500c70ade00f107b200f50fb2008c
:1010500008003200e1cf4200020032000170a0001f
:1010600024000500810f7000010032000408050013
:1010700044000500810f700002003a0014000500d2
:101080008502e9000000400081c04800fcff3b00f1
:101090000170a0002400050007f827000783610005
:1010a0000638e10004003a00f7072000878361005a
:1010b0008703710001003a0003f0a200889fbe0080
:1010c0008a9fbe008c9fbe00470ade000480a100fc
:1010d000c71ade000580a100070028000785600010
:1010e00087856100f70f20000720e1009e00320095
:1010f0000728e1009c003200010678000400e000af
:10110000b4003200f7072000878060000170a00063
:101110000500e000c0003200f70720008781610071
:101120000370a000050652000f003a000b50e100ca
:101130000b0032000308e10002003a000200e10067
:101140007e00320002045000838458000400310005
:101150000001fd008101fd008402fd008a05fd0003
:101160006044b800210037000520e10005003d0083
:101170000001fd008101fd008402fd008a05fd00e3
:10118000050652007a60e100050035000170a100fb
:101190004722dd00848070008a8070006300370081
:1011a0006044b800ef02660007ff2f0007066600e4
:1011b0000500e00006003400f08312008714dd0013
:1011c0000511de00071bdd00060171008519de0038
:1011d0007060e100050035000904780082047800a1
:1011e000030178008001eb00700656000b50e1000f
:1011f00003003a00020040008380480004003700ea
:1012000060041400e0841c00020058008380580031
:101210000188a300060032008100d1000080d300c5
:101220008984d3000884d3000402e8002700370033
:101230000178a30025003a000100e000030032001d
:101240008186cf00698656000a0037008c00200096
:101250000000e00004003a000900780088047800eb
:101260000004eb00700252008086cf000d0646009d
:101270000c06e9007060e10006003500800078008f
:1012800009007800880478000004eb00700656001e
:10129000700252000c00e0000c0034008c08dd00ed
:1012a000f00316000703de00868070000c00dd00ee
:1012b000074bde00060070008c4cdd000743de00ab
:1012c000868474000c44dd000c0252006120e100b1
:1012d000200035006101600007002800878164005c
:1012e000f7ff270087836400070374000300e00012
:1012f0000600320082037300040032000000e800a0
:10130000e08048000188a3000e003a00f70f20009b
:101310000720e1004a003d000170a1004722dd00e6
:10132000810072008a8070000000be004f06be007f
:101330004f05be004f04be00000006006000b8006c
:10134000faff37008100d1000080d3000402e800da
:10135000eeff37000401780089017400a101070045
:101360008a807000f1ff3700f7010700070278005c
:101370000001fd008101fd00f301070087027800f4
:10138000850372000778a300040032000001fd000d
:101390008101fd0006020700e4ff370085036200bb
:1013a0000768a300080032000b50e1000300320080
:1013b000f0ff2f00f1ff2700dcff37000001fd00e8
:1013c0008101fd00d9ff37000468a300d7ff320078
:1013d000faff3700f8ff2700888360000b003a000f
:1013e0000000e00009003a00830364008283730078
:1013f000020032000200be00ccff37000b50e100bb
:10140000ceff3a000200be00c8ff370014002000e3
:10141000810064003eff3700f8ff270088836100e9
:1014200004003a000200e00002003a008c0078005c
:10143000beff3700150020008301640039ff37002c
:1014400001f827000000200081007500b7ff370079
:10145000889fbe008a9fbe008c9fbe001b0020009c
:101460000202be0005866800060028000606660027
:101470004709de00f20fb200820032000243e800aa
:1014800080003200c729de00f30fb2007d00320079
:101490000343e8007b003200f107b2000170a000b6
:1014a000f507b2000570a000c708dd004903de00a3
:1014b000868070004700dd00c72add004923de007a
:1014c000868272004722dd000305510004035000ac
:1014d00085835800030031000000400081804800ef
:1014e0000a05e9008c1f78008a9fbe0004005000a6
:1014f000858058000402420085824a0000004000b6
:10150000818048000005eb000004be006033b80095
:101510000406be000d48e100560031000500090038
:101520004dccd8000c01b8000d02b80084814100f8
:1015300060824a008283530003045c0084845c0060
:1015400060055d000a00e00025003a008005780093
:101550000d40e10049003100880078000700780064
:10156000050009004d88d8000c01b8000d02b80034
:101570008481410060824a006003110083835b0024
:1015800004045c00e0845c000900e00021003a00f3
:101590004f01be000300e0002b003200e3016000b9
:1015a000070673008c817100010032006400700036
:1015b0004200de004e5edd000c007000c258de000e
:1015c00001e0a00083010700cf0178008180710055
:1015d0004f06be004f05be004f04be0000000600cf
:1015e0008c8343000d044c00e0844c0060054d00ea
:1015f0000000e9000a00e000d4ff32008c834300c1
:101600000d044c00e0844c0060054d000000e90032
:10161000ceff37000c0343008d834b0060044c0069
:10162000e0844c000000e9000900e000d8ff32002f
:101630000c0343008d834b0060044c00e0844c009d
:101640000000e900d2ff37004200de004e5edd0000
:101650000c007000c258de0001e0a000cf0178004d
:101660000300e000daff320060001000e0801800a4
:10167000d7ff3700f0ff2f00aaff3700f0ff2f0041
:10168000b9ff37000404be002f0107008706780069
:101690000004fd008104fd002b01070007836600a4
:1016a0000678a300030032000960a7000800be000e
:1016b0002c0037000d78a300020032000800be00a5
:1016c000280037000778a30026003a0001f0a100a7
:1016d00009f0a1000668a30003003200f1ff270013
:1016e000f0ff2f00baff37000d68a300030032009f
:1016f0000800be008c807000b5ff37000768a300ab
:1017000007003a000648a30003003200f1ff27005b
:10171000f0ff2f00aeff37000d48a300030032009a
:101720006000b8008c807000a9ff37000748a30054
:101730000400320001f82700000020008c807000b7
:10174000a3ff3700760107000004fd008104fd00bf
:1017500002057800720107000802be008a017800c5
:1017600059ff37000160a0001202200002838800a8
:1017700097ff37000100e000120032000500e00092
:1017800010003200889fbe008a9fbe008c9fbe0062
:101790000006eb0001f8a300030032006000100017
:1017a000e08018000cf0a00005f8a3000300320050
:1017b00060021200e0821a000cf0a2008005eb002b
:1017c00041ff37006000b800020005000383680095
:1017d0000700280007036300470ade000480a10019
:1017e000c71ade000580a100f70f20000720e100e6
:1017f000420032000728e10040003200889fbe000e
:101800008a9fbe008c1f7800f107b200f307b20078
:101810000400e000640032000170a0000500e00058
:10182000680032000370a00085054200eb07b1009c
:101830000204b8000302b8008484440060854a00b2
:10184000020ab800848444000a854a00030ab800ea
:1018500004054500040033000804d0008984d20048
:101860000a85d2008b05e9006158e1003d00350092
:101870000210200009016100030820008981610035
:10188000f70720008783640008867300c84cde00d9
:10189000c853dd00878474004855de000300e00073
:1018a0000600320082037600040032008904e8005a
:1018b00060054d000a88a3000c003a00f70f2000d5
:1018c0000758e10044003d000a70a100c75ddd003b
:1018d0000a8575008a007300090078004f067800b9
:1018e0004f05be004f04be00000006000a05d100ef
:1018f0008984d3008b05e800f0ff3700881f78004b
:101900000604780090000700070278000001fd003f
:101910008101fd008c0007008702780085037200ba
:101920000778a300050032000001fd008101fd00e1
:101930009f0007004f047800000006008503720036
:101940000748a30003003200f0ff2f00f1ff27003b
:10195000f8ff37000000200001f8270088807000a1
:10196000f4ff3700880178004848dd00808171006d
:101970004848de00c850dd0001007000c850de009d
:10198000060478000b0178001600070088807000bc
:10199000d2ff37000500e0000500320017002000ec
:1019a0003a0007009dff370081037000f9ff3a00fd
:1019b000860078004f0678004f05be004f04be0039
:1019c0000000050083037100f9ff320027002000aa
:1019d0002e00070094ff370001f827008680700072
:1019e000f4ff37000100e000260032006101110021
:1019f0007810e10023003c006022b8007010e10084
:101a00000400350080027800010078008000eb00bf
:101a1000700151000200e000090034007003110061
:101a2000062add00822ade008603dd00878272003e
:101a30000200de00860bdd00070070008208de0079
:101a400084817100f4ff27000482620084817100a8
:101a500004002800848262006102600005f0a60094
:101a60000000060004827100070032000000e80058
:101a7000e0804800000006000002be006000b800e0
:101a8000efff37006000b80000000600889fbe002e
:101a90000004eb006138e10016003a000100e000ac
:101aa00008003a00c800de004800dd008800200081
:101ab0000100e00003003a00c800de004800dd003d
:101ac000680444008184cf00e98454000600340097
:101ad0008908dd00f08314008703de008780700032
:101ae0000900dd0009044400610214004f04be0037
:101af000000006000300e00008003a00c811de0004
:101b00004811dd00880020000300e00003003a00d7
:101b1000c811de004811dd00680444008384cf0052
:101b2000e9845400060034008919dd00f0831400b4
:101b30008713de00878171000911dd00090444006c
:101b4000e1021400e9ff37002700200001f0a700a0
:101b500017002000470bde00f60fb2000400320031
:101b60000643e8000a0032004702b3000000060006
:101b700001037800f607b2000603700002003a0085
:101b80000703b300000006008702b3000000060050
:101b900001037800f607b20006037000020032006d
:101ba0000770a000000006000760a000000006000b
:101bb0000478a300040032000578a300030032007b
:101bc0000168a30001003a000200be000160a0000d
:101bd0000000060081017000270032008002eb0047
:101be00001f8a3000300320060001000e08018003c
:101bf00015002000f40720000202420020003400fb
:101c0000f703200087036000060420000003630040
:101c100002082000000161004700de00c909dd0064
:101c200000807100c708de000600e00008003200f6
:101c300087037100060032001000b0000180b00080
:101c40000188a30002003200c108de000402e8009f
:101c5000f107b200f30f20000320e10003003d0074
:101c60004722dd00810072002900370001f82700bb
:101c70000000eb00260037006000b80000000600fe
:101c8000680212007f20e100020034006000b8000a
:101c90001f0037006011b8007020e100040035001b
:101ca00080017800010078008000eb007002520093
:101cb0000400e00009003400f00312000719dd0001
:101cc0008419de000703dd00868171000400de0058
:101cd000070bdd00060070008408de00f7ff270018
:101ce00083836300870371000600280003036300f9
:101cf000070032000700e00003003a0061016000c5
:101d000002817300020032001000b0000180b000b8
:101d10000500a6000000060001f0a000000006007b
:101d20004f0ade004709de00f107b200f20fb200f1
:101d30000b003200f207b1000170a000c708dd00ff
:101d4000c901de00838070004700dd000400a600aa
:101d50000000060060001000e0801800000006008f
:101d6000810f700001003a00000006008182cf0060
:101d70000500e00010003e008082cf00ee824200ad
:101d80007028e1000400390007003e008000780060
:101d90000000eb000e003700708312008600de00aa
:101da0000500dd000a003700708352008600dd0068
:101db0000000eb0006003700e28252008508dd00db
:101dc000708312000603de00868070000500dd00cf
:101dd0007507b0000501ea000400a6000000060037
:101de00060001000e080180000000600889fbe0020
:101df0008a9fbe008c1f78000006eb00e00f5000a9
:101e0000e08f5800e00f5900e08f590007003d00b7
:101e10006044b8006055b8000000540081805c0048
:101e200002015d0083815d001c002000e00f520074
:101e3000e08f5a00e00f5b00e08f5b0007003d0081
:101e40006044b8006055b8000402540085825c000c
:101e500006035d0087835d000c00a2003f000700c1
:101e60000c00e000060032006022b8006033b800c9
:101e70000000520081805a0002015b0083815b00f8
:101e80004f0678004f05be004f04be00000006005c
:101e9000889fbe008a9fbe00841f7800270007002d
:101ea0004f00780011003300f0ff2f00838f6c008b
:101eb00006003b00040565000a00a7000800370083
:101ec00009f0a6001000200008003700820f54001f
:101ed000838f5c00030039001000200001003e00e9
:101ee0000000200009f0a7000000ea004f05be0036
:101ef0004f04be000000e00000000600881f7800cc
:101f0000030478000300e00007003d0060001000bb
:101f1000e080180060011900e081190002003b0018
:101f200001f02d0003003700edfb070008f0a700cb
:101f300001f0a0004f047800000006000004be007d
:101f400040fc07000003be000405be000200be0006
:101f50003cfc0700844f750000000600889fbe000f
:101f60008a9fbe008c9fbe000404b8000506b8001e
:101f70008904460060854e000606b8000a05460042
:101f8000e0854e000706b8008b054600040eb80039
:101f9000890446000a854e00e0854d00050eb80014
:101fa0000a0546008b854e00060eb8008b054600dc
:101fb0000416b8000a0546008b854e000516b800c9
:101fc0008b054600041eb8008b0546000800be00c5
:101fd0000a01be004f06be004f05be004f04be0002
:101fe00000000600000006000800fa00889fbe00fe
:101ff0008a9fbe008c9fbe000004be000200be008f
:10200000e2b79f00f3b79f00f6ff07008102780058
:1020100005f0a100000278000c0020000df8270058
:102020006fb19700ffb197008c0f52008d8f5a004f
:102030000a003e000800be00eaff070081027800a7
:1020400005f0a100000278006fb19700ffb1970082
:102050008c0f52008d8f5a00030036000800be001e
:1020600016fc0700980037000203be0000002000a5
:1020700001f82300800f5300818f5b0003003a00ba
:102080000800be00980007008f0037000802be005d
:102090004e3dde000b0020006000b80062006500cd
:1020a0004f4dde000b0020000a0570008b8570008c
:1020b0008500780001f0a10008007800e00f5000d2
:1020c000e08f580007003a00e20f5500e08f5d00f6
:1020d00033003200e30f5500e08f5d007b003a00d3
:1020e000320037008702780005f0a1000602780070
:1020f000e00f5200e08f5a003b0032008c0f52007c
:102100008d8f5a002c003a00840f5000858f5800a4
:1021100018003a00e20f5500e08f5d000900320020
:10212000e30f5500e08f5d0009003200e10f55001c
:10213000e08f5d005b003200b8fd200099f42300c1
:102140006200370002002000030424000200370070
:102150000200200003042c00b0fd200091042400a4
:102160009afd07000200200003e8230097fd070006
:1021700055003700e20f5500e08f5d000800320087
:10218000e30f5500e08f5d00080032006044b800a6
:10219000e10f5500e08f5d004c003a00440037002d
:1021a000b8fd20009904240048003700b8fd200045
:1021b00099042c00450037000600200007d02000bd
:1021c0000403430085834b0086bf9f0097bf9f0099
:1021d000800f5300818f5b00030039008c0f50008b
:1021e0008d8f580005003a000a08a3003300320022
:1021f000b8fd200099fc2b00340037006033b80094
:1022000062036500e00f5300e08f5b0008003200be
:102210000c0020000dd020000003460081834e00fa
:102220006000b800840f5300858f5b000400390004
:102230000800be0086fc0700010107002a00070015
:10224000e10f5500e08f5d00050032001e003900ef
:10225000e20f5500e08f5d000b003a0003003700ed
:102260000004be0009f0a20018003700e2d22b00e3
:10227000b33b230091fb07000001be00b0fd20002e
:102280009104240005003700e2d22b00b33b230069
:102290008afb0700b2fd2000930424007efb0700a8
:1022a00009003700b8fd200099f42b000700370023
:1022b000080020000900280004003700b8fd2000b5
:1022c00099fc2300010037000004be000800be0096
:1022d0004f06be004f05be004f04be000080fa004e
:1022e00000000600000006000c00fa00889fbe00f7
:1022f0008a9fbe008c9fbe000004be004f09de0016
:1023000003002000e2b79f00f3b79f00810678002a
:102310000df0a10000067800f0ff2f00f1c72400a7
:10232000800f5600818f5e00100036000800be004e
:10233000ecff07008101780003f0a10000017800a4
:102340000000200001f82700800f5100818f590004
:10235000b5003e000200200003382000a0fd200050
:1023600091fc230055fb0700a6003700f0ff2f006b
:10237000f1ed2300800f5600818f5e0011003e00ba
:102380000085eb00f0ff2f00f1972300800f56002f
:10239000818f5e0055003e00f0ff2f00f107200006
:1023a000800f5600818f5e009f003e000801be0036
:1023b0000800be0005fd0700c0b79f00d1b79f0011
:1023c000990037000800be009d0007000004be0011
:1023d000f0ff2f0071f92300800f5600818f5e00ff
:1023e00025003e00f0ff2f00f1f22300800f560081
:1023f000818f5e0011003e000801be000800be0093
:102400002efb07000200200003f8230022fb070038
:102410000005be0002002000030024000800be00ea
:1024200026fb07000001be000a00be0008fc0700f2
:102430000004be000005eb002c0037000200200065
:1024400003f823000800be0013fb07000005be00d0
:102450000200200003f823000800be0017fb07005d
:102460000001be000a00be00f9fb07000004be0028
:102470001a0020001d003700f0ff2f00b1012400da
:10248000800f5600818f5e0012003e000200200087
:1024900003fc23000800be00fffa07000005be0091
:1024a0000200200003fc23000800be00c7fc070058
:1024b0000200200003f8230000fb07000001be001b
:1024c0000a00be00e2fb07000004be002a00200054
:1024d000060037000801be000000200001f82b00b4
:1024e000dbfb07000004be003a0020000801be002c
:1024f0000800be00b5fc07000002be000001be00df
:1025000084bf9f0095bf9f00b0fc07000006be007f
:1025100052c22a00c3d72300acfc0700d2502f00c0
:1025200013e12300e5fa07000001be000c00be0025
:10253000a6fc070092aa2a00a3ea2300dffa0700fc
:102540000001be000fba97009fba97000400be00ba
:102550009efc07000002be0072242100a3dd2b00b8
:102560000c00be0084bf9f0095bf9f0097fc070032
:1025700082a92c00c3e42300c7fa07000001be00b3
:102580000c00be0091fc07000001be000fba9700ce
:102590009fba9700e10f450009003a000400be0011
:1025a000c6fa07000001be000800be0087fc070055
:1025b0000001be000800be00b7fa0700190037008e
:1025c0004255dd006c3321000a0646000400be00bf
:1025d000bafa07000001be000800be007bfc07003d
:1025e000623421000a0541001a01be00aafa070060
:1025f0000801be00a8fa07000001be001c00be00d2
:10260000a5fa07006fb19700ffb19700e00f5100e6
:10261000e08f5900030032000004be0009f0a20060
:10262000010037000004be000800be004f06be00d7
:102630004f05be004f04be000080fa0000000600f7
:102640000001be008300780001f0a10002007800c4
:10265000000006000400fa00889fbe008a9fbe00aa
:102660000004be004709de0003002000f20fb200a4
:10267000f207b100f60f510030003c000200e0000c
:102680001c003500faff2f00fb0720000201e900c3
:10269000030033008b85d1000a85d300fbff370090
:1026a0008b8164000a016000e00f5100e08f590047
:1026b000220032000200200003b827007ffa070042
:1026c000a0bf9f00b1bf9f00e00f5400e08f5c00ef
:1026d00002003d000a0444008b844c000a85ea0095
:1026e0008b85ea008b8064000a0064000004be0051
:1026f000110037000200200003b827006ffa07001e
:10270000a0bf9f00b1bf9f00e00f5400e08f5c00ae
:10271000020035006044b80007003700080044009c
:1027200089804c00e00f5000e08f5800020032001a
:102730000800200009f82b000800be004f05be006d
:102740004f04be000080fa000000060000000600f2
:102750000400fa00889fbe008a9fbe008c9fbe00c6
:102760000004be000205be00020641008386490047
:10277000e00f5600e08f5e00140032000200be0041
:1027800082bf9f0093bf9f00f0ff07008102780087
:1027900005f0a100000278000000200001f82700e9
:1027a0000fb997009fb99700800f5200818f5a0090
:1027b00006003e000802be00474bde000700200076
:1027c0000680fb00e14f430005003a000800be0010
:1027d000fefb07000001be001dfb070009003700db
:1027e0000801440089814c008c0f51008d8f5900e5
:1027f00006003e0074003a006011b8000800be00f8
:10280000f2fb07000004be006f0037000000e0008c
:1028100013003a004949dd00c741de008301710021
:102820004941dd00030037000000e90002014100da
:1028300083814900e00f5100e08f5900faff3d000d
:10284000e10010000401be008100e9000300330034
:102850000201410083814900fbff3700040037007b
:1028600085017800f307b200080178000370a0002a
:10287000475bde000700200086007800f10fb20001
:1028800012003a00495bdd00c753de008703730086
:102890004953dd00030037008100e90006034300cf
:1028a00087834b00e00f5300e08f5b00faff3d0091
:1028b000618310000603e900030033000a054500a8
:1028c0008b854d00fbff3700100037008b0378002d
:1028d000f707b2000a0378000605be000b70a000df
:1028e0000a003700e00f5300e08f5b000400350062
:1028f000e00f5300e08f5b00bfff32000601be0017
:1029000002014100838149000000e9000a035100ef
:102910008b835900810f5000f2ff3c00e00f530001
:10292000e08f5b0003003d00090037000601be0098
:1029300007003700e00f5300e08f5b00fbff3a0019
:10294000adff370002014100838149000000e9002a
:10295000471bde0007002000e00f5300e08f5b0004
:10296000f8ff32000000e0000a00340006002000fa
:1029700007f82f000201430083814b00cf80de0067
:10298000c700dd000000200002017000838170009c
:1029900006003700610010000000e900030033006a
:1029a0008301d1000281d300fbff3700000020002b
:1029b0000100280085836000000378000601710093
:1029c000878171000204be000800be004f06be00f1
:1029d0004f05be004f04be000080fa000000060054
:1029e000889fbe008a9fbe00800478000200e0003d
:1029f0005a00320001407800814c78008281440006
:102a0000f1f99f00e20f5100540036009144980004
:102a1000a1449800e1f99f00d1f99f00e60f510011
:102a20004e003600b1449800c1f99f00e80f5100f4
:102a30004a0036000905ea00630565000a8444007f
:102a40000a055100c1ff2f00010565000080fb0051
:102a50008000eb001210200013102000430007003c
:102a6000008cbe000a01440060b99f0071b99f004c
:102a7000e80f550039003600200498003104980012
:102a8000400498005104980020b99f0031b99f007c
:102a900040b99f0051b99f00f80f55002f00360034
:102aa0006004980071049800000c9800110c9800c4
:102ab000200c9800310c9800400c9800510c9800a4
:102ac00020b19f0031b19f0040b19f0051b19f00e4
:102ad00060b19f0071b19f0000b99f0011b99f00c4
:102ae00064016400780141000204440002055500bd
:102af0006011b8000203be000002be000403be0065
:102b00006022b80000007200818072000201730030
:102b1000838173000f00370008027800009abe001e
:102b2000029abe00009abe000292be00000c9800fd
:102b3000110c9800220c9800330c9800400c98005f
:102b4000510c9800620c9800730c98000a02b100b6
:102b50000802b000ff0f5500efff3e0009007800ab
:102b60004f05be004f04be0000000600020ab90077
:102b7000001bb9000200b800810042008100430040
:042b8000000006004b
:020000040000fa
:102b8400000000004f0000009e000000ed00000067
:102b94003c0100008b010000d90100002802000064
:102ba40077020000c6020000150300006303000062
:102bb400b2030000000400004f0400009d04000064
:102bc400ec0400003a05000088050000d60500006a
:102bd4002406000072060000c00600000e07000074
:102be4005b070000a9070000f60700004308000087
:102bf40090080000dd0800002a09000077090000a1
:102c0400c30900000f0a00005c0a0000a80a0000c3
:102c1400f40a00003f0b00008b0b0000d60b0000f1
:102c2400210c00006c0c0000b70c0000010d00002a
:102c34004c0d0000960d0000e00d0000290e000070
:102c4400730e0000bc0e0000050f00004e0f0000c4
:102c5400960f0000df0f0000271000006e10000028
:102c6400b6100000fd100000441100008b1100009c
:102c7400d1110000171200005d120000a212000022
:102c8400e81200002d13000071130000b6130000b9
:102c9400f91300003d14000081140000c414000066
:102ca40006150000491500008b150000cc15000026
:102cb4000e1600004f1600008f160000cf160000fd
:102cc4000f1700004f1700008e170000cd170000eb
:102cd4000b1800004918000087180000c4180000f1
:102ce400011900003d19000079190000b519000010
:102cf400f01900002b1a0000661a00009f1a000049
:102d0400d91a0000121b00004b1b0000831b00009b
:102d1400bb1b0000f21b0000291c0000601c00000b
:102d2400961c0000cb1c0000001d0000351d000097
:102d3400691d00009d1d0000d01d0000031e000041
:102d4400351e0000671e0000981e0000c91e00000a
:102d5400fa1e0000291f0000591f0000881f0000f0
:102d6400b61f0000e41f0000112000003e200000f8
:102d74006a20000096200000c1200000ec20000022
:102d8400162100004021000069210000922100006a
:102d9400ba210000e1210000082200002f220000d7
:102da400552200007a2200009f220000c322000066
:102db400e72200000a2300002d2300004f23000017
:102dc4007023000091230000b2230000d1230000ef
:102dd400f12300000f2400002d2400004b240000e8
:102de4006824000084240000a0240000bb24000008
:102df400d5240000ef24000009250000222500004e
:102e04003a25000052250000692500007f250000b6
:102e140095250000aa250000bf250000d325000049
:102e2400e6250000f92500000b2600001d26000001
:102e34002e2600003e2600004e2600005d260000df
:102e44006c2600007a2600008726000094260000e5
:102e5400a0260000ab260000b6260000c026000015
:102e6400ca260000d3260000db260000e32600006b
:102e7400ea260000f1260000f7260000fc260000e8
:102e84000127000005270000082700000b27000089
:102e94000d2700000f270000102700001027000056
:042ea400200000000a
:020000040000fa
:102ea8002be3a80061e3a80097e3a800cde3a800fe
:102eb80003e4a80039e4a80000000600e30f50006e
:102ec8001000320005003e00e10f500009003200fa
:102ed800e20f500012003a0008003700e50f5000da
:102ee8000c00320009003900e60f50000c003a00cf
:102ef8000a003700711a880009003700211c880071
:102f080007003700d11d880005003700811f8800a1
:102f1800030037003121880001003700e1228800d2
:102f28000000060010c0b30028f0b700000006003b
:102f3800040221003400be002401be004406200023
:102f4800050020006033b800a6fb0700000006005b
:102f5800000221003002be002003be0061024200d0
:102f6800e0824a0060034b00e0834b000498be00f7
:102f78000690be00000006003c1607000000060090
:102f8800889fbe000004be00b2fd200093fc230011
:102f98008ef707000000e0001e003d0062fe2500dd
:102fa800d32f24000800be0006fa07000004be0064
:102fb8006011b80087f707000000e0000600350040
:102fc8000200200003f023000800be0039f80700c3
:102fd80082f70700050037000200200003f02300f5
:102fe8000800be002af807007cf707000000400030
:102ff800215c29000080400010007800cf80de00ae
:10300800b2f7070072712b00138d2300edf907004a
:1030180079003700b2fd2000930424000800be00a8
:103028006af707000000e00026003d0062fe250068
:10303800d32f24000800be00e2f907000004be00f8
:103048006011b80063f707000000e0000a003500cf
:103058000200200003f023000800be0015f8070056
:103068005ef70700e218200003002000000051006e
:1030780081805900090037000200200003f0230076
:103088000800be0002f8070054f70700e218200005
:10309800030020000000510081805900000040001a
:1030a800215c29000080400010007800cf80de00fd
:1030b80086f7070072712b00138d2300c1f90700f2
:1030c8004d00370042be2c00630924000800be00f2
:1030d8003ef707000000e00022003d0062fe2500e8
:1030e800d32f24000800be00b6f907000004be0074
:1030f8006011b80037f707000000e000080035004d
:103108000200200003f023000800be00e9f70700d2
:1031180032f70700e018b1000180b100070037005e
:103128000200200003f023000800be00d8f70700c3
:103138002af70700e018b1000180b1000000400044
:10314800215c29000080400010007800cf80de005c
:103158005ef7070072712b00138d2b0099f9070099
:103168002500370062fe2500d32f24000800be008a
:1031780094f907000004be006011b80015f70700b5
:103188000000e0000a0035000200200003f02300e0
:103198000800be00c7f7070010f70700c23120007b
:1031a8000300200000005100818059000900370009
:1031b8000200200003f023000800be00b4f7070057
:1031c80006f70700c231200003002000000051006c
:1031d8008180590000004000215c290000804000e7
:1031e80010007800cf80de0038f7070072712b00de
:1031f800138d2b0073f907004f04be000000060072
:103208008181d1000081d30064a8250075f32500d1
:103218000201520083815a006af907000000060083
:10322800fe874700889fbe008a9fbe008c9fbe0015
:103238008e1f780000077800b2b79f00c3b79f00c1
:103248003bff07000203be000002be00d0af9f0094
:10325800e1af9f00f2af9f0083b79f000e10900070
:103268009e1090002e119000be1190000000520098
:1032780081805a0002015b0083815b0016f707001a
:10328800f226210033a823004ef90700f226210078
:1032980033a823004bf907000004be006011b800f2
:1032a800caf607000000e000070034000200200012
:1032b80003f023000800be00c6f607000000e00087
:1032c80004003c0005003700f826210039a8230037
:1032d80002003700f826210039a823001e01be008d
:1032e8003fb09700cfb0970036f90700b0af9f0006
:1032f800c1af9f002e089000be08900090b79f00b5
:10330800a1b79f002e019000be0190000800be00ea
:103318002cf907000200200003f0230029f9070018
:103328000005be003fb19700cfb197001fb09700ce
:10333800afb097005ff707000001be000a00be00ab
:1033480020f907006e099000fe09900059f7070060
:103358000006be000e0990009e099000d2b79f009b
:10336800e3b79f0003f0a200f2b79f0083bf9f005e
:103378000001be007fb097008fb8970095f6070050
:103388000000e00007003c005fb19700efb1970034
:103398000c00be008ff607000000e00004003c00af
:1033a800050037007fb697008fbe970002003700f0
:1033b8005fb69700efb697003fa99700cfa997008f
:1033c8000c00be003bf707000005be001fb19700c8
:1033d800afb197003fb09700cfb097002cf7070028
:1033e8004e019000de019000f6f807000801be00cb
:1033f80015f807000001be000a00be002df70700ff
:103408000005be000001be007fb097008fb897008e
:1034180070f607000000e00007003c000a01be004b
:103428005fb09700efb0970068f607000000e00073
:1034380004003500050037007fb597008fbd970061
:10344800020037005fb59700efb597006e02900055
:10345800fe029000f4b79f0085bf9f006011b8007e
:103468000400be005bf607000000e0002c003400fa
:103478004e0b9000de0b9000d6b79f00e7b79f0079
:103488000601be000a00be0001f707000801be00e1
:10349800edf707000001be0090b79f00a1b79f009d
:1034a8007fb097008fb8970048f607000000e0004b
:1034b8000a003d007fb197008fb997000800be0051
:1034c800c0f807000001be005fb09700efb097009a
:1034d800f8f607000005be00110037007fb097001e
:1034e8008fb8970001f0a2001fb19700afb1970005
:1034f80038f607000000e000090034007fb19700ab
:103508008fb997000800be00aef807000001be00a2
:103518005fb09700efb09700ddf607000005be002a
:103528006c0f98007d0f98004a0f98005b0f980069
:103538003fb29700cfb29700240f9800350f98003c
:103548005fa89700efa897007fa997008fb1970011
:103558000017980011179800221798003317980041
:103568000a00be004f0778004f06be004f05be0098
:103578004f04be00ef01b10000000600ec874700d1
:10358800889fbe008a9fbe008c9fbe008e1f780059
:10359800000778000206be0065fe07000203be00b1
:1035a8000002be00d0b79f00e1b79f00f2b79f00ae
:1035b80083bf9f002e009000be0090004e01900037
:1035c800de0190000000520081805a0002015b0079
:1035d80083815b0040f60700f226210033a8230010
:1035e80078f80700f226210033a8230075f80700b1
:1035f8000004be006011b800f4f507000000e00008
:1036080011003500a299290093e923000800be00a3
:10361800f0f507000000e0000d0034006c0798008a
:103628007d0798005fb09700efb097007fb19700d3
:103638008fb9970020079800310798004207980033
:103648005307980024003700f826210039a82300e2
:103658001e05be000801be000a00be0095f6070060
:103668000001be000a00be0077f707000004be0094
:10367800ec004700c1b79f001101be000800be0062
:1036880050f807000005be000801be000000200039
:1036980001f823007ef607000c01be0049f8070078
:1036a8000001be000a00be0082f607004fb1970075
:1036b8000089be005fb29700efb297007fb3970012
:1036c8008fbb970024079800350798004607980095
:1036d800570798000006be000c00be004f07780090
:1036e8004f06be004f05be004f04be00cf00b1001c
:1036f80000000600889fbe00b2fd2000930c240045
:1037080011fc07000004be006011b8000000be00f4
:10371800b0f507000000e00005003d00b2fd200004
:10372800930c24000800be0062f607000004be00e7
:103738000800be004f04be0000000600889fbe00bf
:103748000004be0002007800cf80de00dff507002d
:103758000801be001bf807004f04be000000060069
:103768000200fa00889fbe00000478000000eb0009
:10377800d0bf9f000800e00003003a0066805700b1
:10378800da1207000200370066805700941207001b
:10379800e005200080c4b900200c2100000444008a
:1037a8001804be005fb897008000eb00f9f5070029
:1037b8000801be0024f70700b2fd2000930c240086
:1037c80000f807004f04be000080fa000000060061
:1037d800ec874700889fbe008a9fbe008c9fbe0072
:1037e8008e1f780000077800ec0520008cf6b900e1
:1037f8002a0721000c004500001a9000901a90003a
:10380800201b9000b01b9000f01890000021900041
:1038180090219000601890000000520081805a00aa
:1038280002015b0083815b00abf50700f2262100f3
:1038380033a82300e3f70700f226210033a823006a
:10384800e0f707000004be000c0545002a28900098
:10385800ba2890000801be005ef507000000e000ed
:1038680006003400e205200082f1b900800721003b
:10387800000741001e00be003e003700e0052000a2
:1038880080f0b90080bf9f004004b0002e072100df
:1038980000004700f0b79f001001be000fba970064
:1038a80004004700d020900040209000c402b000df
:1038b80004024700e4b79f00840378001703be00a2
:1038c800c6b79f00d7b79f000fbb970006024700f7
:1038d800441e9000d41e90000000510081805900c1
:1038e8007af50700b2fd2000930c2400b5f7070015
:1038f8000005be000c01be004fb09700dfb0970076
:10390800e3f507000001be000a00be00e9f5070064
:103918000801be00ccf607000001be000fb89700f2
:1039280080004700b2009800c3009800efb19700ec
:103938001301be00c2189800d3189800ffb2970070
:103948001502be00c4209800d5209800011a9000e6
:10395800911a9000211b9000b11b9000e418980068
:10396800f51898008620980097209800310090005c
:10397800c10090004f0778004f06be004f05be00fb
:103988004f04be00cf00b10000000600889fbe00b3
:10399800e10520008181b900210721000280400053
:1039a80020229000b022900000017800621490005c
:1039b800f21490000400be0044f50700b2fd200098
:1039c800930c24007ff707000801be00b9f5070033
:1039d8004f04be00000006000400fa00889fbe00e5
:1039e8008a9fbe008c9fbe00000678000c007800fd
:1039f8005bff07000005be004dfd07000203be0087
:103a08000002be0021072100e205200082e1b90082
:103a1800828140008419980095199800a619980089
:103a2800b719980003017800f21190006211900014
:103a38000a00be0096f507000004be00e7f4070080
:103a480000f0a7000000ea00cf80de001ff50700a5
:103a5800c2972d00030a2400def407000000e000ee
:103a680018003400e005200080e0b900610b210057
:103a7800010040001001be0082bf9f0093bf9f005d
:103a88006011b8000800be00d2f407000081eb0006
:103a98008081eb000000e00002003c0012002000e2
:103aa80003002000e005200080e0b900610b210040
:103ab800010040000fba97009fba97000418410010
:103ac8000590490029072100e805200088e4b9008d
:103ad80088864400ea169800fb1698000c007800c7
:103ae800aaff07000001be00fa00440089804000d8
:103af80001007800a1fe070090069800a106980032
:103b08000c00780032ff07000001be006a04440080
:103b1800890444000900780098fe0700b006980060
:103b2800c10698004f06be004f05be004f04be00f8
:103b38000080fa0000000600889fbe008a9fbe0031
:103b48008c1f7800a40a20008482b9004214210046
:103b5800820042001104e00006003a00a10a200099
:103b68008180b90061142100010040001000be00ee
:103b780017003700aa0a20008a80b900eb13210039
:103b880000804500701e9000e005200080e0b9002c
:103b98002107210000814000226990000080400038
:103ba80010049000a00490000200fb00cf80de000b
:103bb800c6f407000801be0002f707008ae5b9004d
:103bc8008a8545004b199000db19900030f50700f5
:103bd8004f0678004f05be004f04be0000000600e7
:103be800f2874700889fbe008a9fbe008c9fbe0058
:103bf8008e1f7800c0b79f000205be000404be00f7
:103c0800f6b79f0087bf9f006011b8000400be0090
:103c1800e2f407000000e0001c0032000801be00ca
:103c28000800be00e7f607000006be000a01be0055
:103c38000a00be00e3f607000001be000c00be004b
:103c48001cf507006efd0700a20a2000cfb19700ff
:103c58008299b90063152100030141001201be00d9
:103c6800f9f507000006be000801be000a00be0004
:103c7800dbf807007fb197008fb997000df50700b3
:103c88009cfe07000005be0010003700a00a2000b7
:103c98004fb2970080a0b9006115210001004000d3
:103ca8001001be000a00be00e7f507000006be00ce
:103cb800b2fd200093fc23007fb097008fb89700d7
:103cc800fcf407008bfe07000005be0022a92000b7
:103cd80063f823000a00be00dbf507005bfa070063
:103ce8000200200003f82300f2f407003bf4070069
:103cf800000778006170b90074f407000004be0082
:103d080022a9200063f82300aef607000a01be00ce
:103d1800dff407009afc0700723d2b00d3fd230057
:103d2800a8f607000c01be00a6f60700f0b79f0032
:103d380081bf9f000200200003f823000800be0096
:103d4800d3f4070022a9200063f823009df607009a
:103d58000001be000a00be00cdf4070088fc070081
:103d6800723d2b00d3fd230096f607000c01be0020
:103d780094f60700d0b79f00e1b79f007fb1970086
:103d88008fb997000000200001f82300c0f4070055
:103d98005fb19700efb19700bdf40700e30f57003c
:103da8003000320005003c00e10f570009003200e6
:103db800e20f570075003a0018003700e50f57006a
:103dc8004e0032003a003500e60f57006f003a0007
:103dd8005c0037000200200003f0230079f607009a
:103de8000005be005fb19700efb197007fb0970064
:103df8008fb89700aff407000a01be00adf40700c2
:103e08000004be000a01be005fb09700efb0970043
:103e1800a8f407000006be005f003700020020007b
:103e280003f0230067f607000005be007fb1970086
:103e38008fb997009ff407000004be005fb1970098
:103e4800efb197007fb097008fb8970099f40700fb
:103e58000001be000a00be0096f407000006be007e
:103e68004d0037000200200003f0230055f607003c
:103e78000004be005fb19700efb197007fb09700d4
:103e88008fb897008bf407000001be000800be0041
:103e980088f407000006be000801be005fb0970066
:103ea800efb0970083f407000005be003a00370022
:103eb8000200200003f0230042f607000004be00c1
:103ec8000001be007fb097008fb8970079f4070013
:103ed8000006be005fb19700efb197007fb0970072
:103ee8008fb8970073f407000001be000800be00f9
:103ef80070f407000005be0027003700020020000c
:103f080003f023002ff607000006be005fb19700fc
:103f1800efb1970067f407000004be005fb1970097
:103f2800efb197007fb097008fb8970061f4070052
:103f38000001be000c00be005ef407000005be00d4
:103f4800150037000200200003f023001df60700cb
:103f58000006be005fb19700efb197007fb09700f1
:103f68008fb8970053f407000c01be0051f4070006
:103f78000004be000c01be007fb097008fb8970008
:103f88004cf407000005be00030037006055b80078
:103f98000a06be000a04be00ae0a20004fb297000f
:103fa8008ea2b900f4b79f0078004200ee132100fa
:103fb80000004700d0b79f00800078001100be00c5
:103fc800a0b79f00b1b79f0004014700c2b79f0088
:103fd800e209b00092b79f000200200003f023001e
:103fe8000800be002af407002fb19700bfb1970060
:103ff800f4f5070002c02100436f2400f1f5070023
:1040080002002000031224000ff5070002c021005f
:10401800436f240027f407009fb197008089be00f2
:104028005fb297001404be004fb09700200ab0009a
:10403800a0b79f000200200003f023000c00be0080
:1040480013f407000801be00def5070002c02100d6
:10405800436f2400dbf50700020020000312240050
:10406800f9f4070002c02100436f240011f407008f
:104078002fb197000089be00dfb197001304be007e
:104088004fb697006c0ab0000200200003f023002e
:104098000a00be00fef307000801be00c9f50700cc
:1040a80002c02100436f2400c6f50700020020006b
:1040b80003122400e4f4070002c02100436f240027
:1040c800fcf30700008ebe007fb297000400470093
:1040d800809090007088900061f307007fb297008d
:1040e80004014700800078004288900073fb0700b5
:1040f8007fb1970002004700a090900010909000b8
:1041080057f307007fb2970004014700800078004a
:104118005288900069fb07007fb1970002004700b2
:10412800c0909000309090004df307007fb2970048
:1041380004074700800078006e8890005ffb070046
:104148004f0778004f06be004f05be004f04be0063
:104158002f01b10000000600f4874700889fbe00c9
:104168008a9fbe008c9fbe008e1f780000077800d3
:104178000204be006efb070090b79f00a1b79f0026
:10418800b2b79f00c3b79f00a00a200080f0b90013
:10419800e1162100010040003002be002003be00ed
:1041a800d4b79f00e5b79f00f6b79f0087bf9f0071
:1041b8001fb09700afb097003fb19700cfb19700fd
:1041c80045f307000005be005fb09700efb0970009
:1041d8007fb197008fb997003ff307000001be0039
:1041e8000a00be00aaf30700f226210033a8230024
:1041f80074f50700f226210033a8230071f50700a3
:104208000005be006011b800f0f207000000e000f1
:10421800070034000200200003f023000a00be005b
:10422800ecf207000000e00004003c000500370045
:10423800fa2621003ba8230002003700fa262100b5
:104248003ba82300a00a200080f0b90061142100d7
:10425800010040001001be000800be008cf30700fa
:104268006011b800dbf207000000e000090035002b
:10427800a00a200080f0b90061142100010040006c
:104288001001be000800be0081f307000006be0052
:1042980009003700a00a200080f0b900611421004d
:1042a800010040001001be000800be0078f30700be
:1042b8000006be000df0a200a00a200080f0b900a0
:1042c80021152100010040001000be000a01be00b7
:1042d8003cf507000001be000c00be00bdf207005f
:1042e8000000e0003a003400a00a200080f0b90085
:1042f80061142100010040001006be001001be003c
:104308000800be0062f307006011b800aff20700b2
:104318000000e0000f003500a00a200080f0b9007e
:1043280061142100010040001001be000800be0019
:1043380057f307006011b800a6f207006044b80000
:104348000000e000050034000800200009f8230000
:10435800020037000800200009f82b00a00a2000fe
:1043680080f0b900d0b79f000003780074004300c4
:10437800e71321000080430080b79f000001780008
:104388001200be000a01be000ef507000001be00c3
:104398000800be000bf507000001be000c00be00bf
:1043a80044f307000001be00e51321005fb2970047
:1043b80084804200c2009800d30098008fb3970011
:1043c8001703be00e6009800f700980009003700c0
:1043d800a00a200080f0b900e1132100008040000d
:1043e80048009800590098006011b80062009800d1
:1043f80073009800ac0a20008cf6b900ea1321007b
:104408000c004500400c9000d00c9000a0059000d6
:10441800d000900040009000b6fc07000b01780027
:10442800c6fc07000003be006022b8000801be00f9
:104438000e007800eafd07000c0545001fb0970044
:10444800afb097003fb19700cfb19700001d98001b
:10445800111d9800221d9800331d98000800be0009
:104468004f0778004f06be004f05be004f04be0040
:104478004f01b10000000600889fbe008a1f780027
:104488008c1f78000004780008007800b4fc07004e
:10449800100020000311070008007800b0fc070096
:1044a8002a072100ec0520008cc6b9008c044500c1
:1044b800c01c9800d11c98009dfa0700e01c9800c9
:1044c800f11c980082249800932498001000200082
:1044d800e610070008007800a1fc07001000200083
:1044e800f0100700080078009dfc0700e014980011
:1044f800f11498008efa0700801c9800911c98000f
:10450800a21c9800b31c980009057800ea2c9000ba
:104518000800780092fc0700a40a200084cab900a9
:104528006214210082044200808cbe004f0678008d
:104538004f0578004f04be0000000600a10a2000c5
:104548008180b900c1172100010040009000780067
:10455800e00520008088b900e10921000100400041
:104568001000be0000000600889fbe008a9fbe00a3
:104578008c9fbe008e1f7800a40a20008482b90098
:1045880042142100820042001104e00006003a00b3
:10459800a10a20008180b900a11521000100400076
:1045a8001000be001e003700a20a20008281b90058
:1045b800ea03200002054500e11321000a854000b6
:1045c8001a027800eb0520008ba2b9002c07210005
:1045d80084014600a36e90000281400022079000eb
:1045e800d6ff07000004be001a0078008b80b900cf
:1045f800000646004c2d9000dc2d90000d00fb00bd
:104608008e80b900cf80de0030f207000801be00be
:104618006cf407000a01be009df2070035fc070094
:104628004f0778004f06be004f05be004f04be007e
:1046380000000600e6874700889fbe008a9fbe00ec
:104648008c9fbe008e1f780080067800a80a200084
:1046580088ecb900c0172100000444001800780055
:1046680085ff070018017800e00520008091b90057
:10467800c009210080004100100020001104e00062
:10468800c8003a000005eb00a00a200080e8b90045
:10469800f8054000ec132100e003b00000074600d5
:1046a8000b0046001004be006150b90007f2070075
:1046b800b2fd2000930c240042f407000200200001
:1046c800a33f240060f3070042be2c0063092400c6
:1046d80078f207000003be006022b8000801be009f
:1046e8000d0078003efd07001e007800bafc0700a8
:1046f8001000200020fa07000a05e800501f2000db
:10470800800f5500e6ff3a00a80a200088ecb9009f
:10471800c01721000004440018007800aefc070010
:104728001800780099fc07000005be004c1f200007
:10473800a00a200080e8b900f800400081bf9f006f
:10474800ee132100e003b00000004700f0b79f001f
:104758008fb89700010047001004be006160b900df
:10476800daf10700b2fd2000930c240015f40700cd
:1047780002002000a33f240033f3070042be2c00b0
:10478800630924004bf207000003be006022b80052
:104798000801be000d00780011fd0700ffb097006a
:1047a800110078008cfc070010002000f2f90700c7
:1047b8000c06e900e10f4600e5ff3a00a80a2000d0
:1047c80088ecb900c01721000004440018007800e4
:1047d80081fc0700180078006cfc07000004be008c
:1047e8000001be000a00be0078f1070080007800d2
:1047f8000000eb000100e0006a0032000801be0082
:104808000a00be0071f107000000e0000b003d0047
:10481800a20a200082e9b900c01721000000410067
:1048280090007800e00520008088b900c1092100c7
:104838000080400000c8eb000b003700a20a2000ef
:1048480082e9b900c01721000000410090007800fb
:10485800e00520008088b900c109210000804000df
:1048680011c0b300014878000801be000a00be006c
:1048780007f207000004be006011b80055f10700f8
:104888000000e00001003d0009f0a200a20a20009b
:1048980082e9b900201421000000410010007800ce
:1048a800cf80de0089f107000001be000800be00cd
:1048b800c4f30700b2fd2000930c2400f4f10700b4
:1048c8006011b80043f107000000e0000600350061
:1048d800a20a200082e9b90020142100000041004a
:1048e8001000780005003700a20a200082e9b9000c
:1048f800201421000000410010007800a80a2000c0
:1049080088ecb900ea13210008004500400990002e
:10491800d009900046be2c00670924006022b80028
:104928000d007800aefc07000032200092f9070065
:10493800e803b000080545001a00780026fc0700c7
:104948001a0078002c072100eb0520008b80b900a5
:10495800000046006044b80048289800592898008c
:104968001a0578000d007800fffe07008bd5b90006
:104978000a064600402e9800512e9800400120005b
:104988007df907000803be000802be000801be004a
:104998000d00780092fc07004006200076f9070019
:1049a800100020004f0778004f06be004f05be00dc
:1049b8004f04be006f00b10000000600889fbe00d3
:1049c8008a1f78008c1f780000047800e11321000a
:1049d800a00a200080c0b900008140000400200027
:1049e800051224004409980055099800020078002f
:1049f800f0189000e00520008088b900c109210066
:104a080001004000190020001004e0000e003a00e8
:104a18000800780007ff070080047800ac0a20002f
:104a28008cc6b900ea1321000c00450070189000ec
:104a3800e9fb0700080078003ffc07000c0545006b
:104a48004005980051059800090078004f06780045
:104a58004f0578004f04be0000000600889fbe0086
:104a6800a40a20008482b900421421008200420076
:104a78001104e00006003a00a10a20008180b90074
:104a8800a1142100010040001000be0012003700f0
:104a9800a10a20008180b900c1172100010040004f
:104aa80090007800e00520008088b90021072100e7
:104ab800008140002269900000804000300490008e
:104ac800c00490000200fb00cf80de00fff007006a
:104ad8000801be003bf307004f04be0000000600bb
:104ae800f0874700889fbe008a9fbe008c9fbe004b
:104af8008e1f7800f0b79f000206be000cf9070071
:104b0800b0b79f00c1b79f00d2b79f00e3b79f001f
:104b1800a00a2000ffb2970080a8b900e116210082
:104b2800010040003fb29700cfb297005fb39700f3
:104b3800efb3970030045200b0845a0030055b0090
:104b480090855b000800be000a01be00e2f0070085
:104b5800f226210033a823001af30700f2262100c9
:104b680033a8230017f307000004be006011b80043
:104b780096f007000000e000070034000200200063
:104b880003f023000800be0092f007000000e000d8
:104b980004003c0005003700f826210039a823004e
:104ba80002003700f826210039a82300ae0a2000a9
:104bb8007fb397008eb3b90086bf9f00680043009b
:104bc800ee13210000004700a0b79f001005be00ab
:104bd8000801be000c00be00faf207000001be008a
:104be8000a00be0033f10700c2fa07000fbc9700a5
:104bf8000805470040059800510598006c05980085
:104c08007d0598004a0c9000da0c90002a0190006b
:104c1800afb197001300be00c8fa07000003be003a
:104c28006022b8000801be007fb09700ecfb0700c7
:104c38003fb29700cfb297005fb39700efb39700ea
:104c4800041d9800151d9800261d9800371d980012
:104c58000800be004f0778004f06be004f05be0093
:104c68004f04be000f01b10000000600881f780045
:104c780000047800a00a200080c0b900a117210014
:104c8800010040001040780063405000e14f5000a0
:104c9800130036000800780033fe07000002be004b
:104ca800e3132100a20a200082c1b90082804100da
:104cb800e4089800f508980001027800840078005c
:104cc800640b9000f40b9000942290000422900052
:104cd80021219000b121900008007800c0fb070056
:104ce8004f04780000000600889fbe008a9fbe001f
:104cf8008c9fbe008e1f7800000778000204be005b
:104d0800a00a200080f0b900a1172100010040008e
:104d18001040780063405000e14f50000800360012
:104d28000e00780084fb07000001be00a40a2000e2
:104d380084f2b90060142100800042008288be001d
:104d48000e00780045ff07000001be00a00a200001
:104d580080f0b900e113210080804000e200980053
:104d6800f30098001104e0005501320002402e00c3
:104d780003642c000800be0088f007000000e00073
:104d880005003200a00a200080f0b900e1142100db
:104d9800010040000888be00a00a200080f0b90089
:104da800a11721000100400010407800e24f500098
:104db8003a00320005003e000004e000080032001e
:104dc800e14f50003e013a0059003700e34f5000d0
:104dd80072003200e44f500039013a008000370079
:104de800a00a200080f0b900e113210000814000f2
:104df800020c9000920c900028219800392198000c
:104e08000200780040099000d009900003f0a20049
:104e18000800be00edef07000000e00007003d00bd
:104e2800a20a200082f1b9006015210000004100ab
:104e38001004be0009f0a2000e003700a20a2000ec
:104e480082f1b90060152100000041001001be0088
:104e58000800be00dfef07000000e0000500340096
:104e6800a20a200082f1b90060152100000041006b
:104e78001004be00a00a200080f0b900ee13210043
:104e88000007470028279800392798006000b800d5
:104e9800002798001127980009013700aa0a200066
:104ea8008af5b900e81321000a0044009008900030
:104eb800000890000a014400d201900042019000cd
:104ec80073f007000001be00010720008a8040003f
:104ed8008880400001007800d1f8070080818800b0
:104ee800918188000a014400f2019000620190005b
:104ef80067f007000001be00810420008a8040009e
:104f08008880400001007800c5f80700a08188006b
:104f1800b18188000a0444002024980031249800b4
:104f28006000b8000024980011249800e4003700bd
:104f3800aa0a20008af5b900e81321000a004400f3
:104f48009008900000089000808188009181880076
:104f58000a014400f2019000620190004cf0070041
:104f68000001be00810420008a8040008880400043
:104f780001007800aaf80700a0818800b1818800a4
:104f88000a04440020249800312498006000b800e6
:104f98000024980011249800c9003700aa0a2000ac
:104fa8008af5b900e81321000a00440000099000be
:104fb8009009900082818800938188000e00780013
:104fc800c7fe07000a0444002024980031249800f2
:104fd8006000b8000024980011249800b800370039
:104fe800a20a200082f1b9006018210000004100e7
:104ff8000200200003f82b001000be00e7ef0700b6
:105008000000e00037003200a40a200084f2b90052
:10501800e3132100048041009008900000089000ec
:105028000481410042039000d20390008404b00040
:10503800030442000601be0015f007000001be008f
:105048000800780076f807006011b80061ef0700e3
:105058000000e0000f003500a20a200082f1b9002c
:10506800e31321000280410090089000000890009e
:1050780002814100d20190004201900004f0070033
:105088000001be000800780065f807000002be00b5
:105098000f003700a20a200082f1b900e3132100b3
:1050a80002804100900890000008900002814100b1
:1050b800d201900042019000f5ef07000001be0008
:1050c8000800780056f807000002be0005f0a200ac
:1050d800a20a200082f1b9002115210081004100b7
:1050e8008488be00a20a200082f1b90020152100a0
:1050f800000041001000be0002002000031224003e
:1051080034ef07000000e00007003400a20a200086
:1051180082f1b900201521000000410002002000a2
:10512800031224000288be00ac0a20008cf6b900e5
:10513800e81321000c004400000990009009900039
:105148000e00780004fc07000005be00608188009e
:10515800718188000c04440028269000b82690002d
:105168000001be000c00be00c9ef07000004be002d
:105178006011b80017ef07000000e00009003500d3
:105188001ac0b300a2702d0033ca23000800be0065
:105198000eef07000000e0000d0035000045eb00b1
:1051a8000b0037000c00be0001f0a2000a01be008f
:1051b800b7ef07001ac0b300a2702d0033ca23004e
:1051c80002ef07000000e000010035000045eb0099
:1051d8000a04e00029003200a00a200080f0b9008b
:1051e800e113210000814000021290009212900009
:1051f8000202b00016002000070020000619420035
:1052080007914a0000804000604090000004e000e0
:1052180020003a00a20a200082f1b9000280400072
:1052280000129000901290008000780041149000c5
:10523800d11490000400be0056ef070002002000c1
:1052480003e823005ff107000801be00e1ee070054
:105258000000e0000f003400a00a200080f0b90030
:10526800e11321000081400022129000b212900048
:10527800440998005509980006003700a20a200042
:1052880082f1b900e0152100000041000008eb00a0
:1052980030107800a00a200080f0b900ee13210039
:1052a80000074700668180007781800026279800e4
:1052b800372798006000b800002798001127980049
:1052c8004f0778004f06be004f05be004f04be00d2
:1052d80000000600889fbe008a9fbe008c9fbe000b
:1052e8008e1f7800a01721000002eb00ed132100ab
:1052f800ac0a20008402780008002000091a240063
:105308006011b80006002000071224008ca5b9001f
:105318008a007800818046000187e800050f780040
:10532800be002000ae0098000a002000ab4f240009
:10533800ca109800db1098000a0020000bf8230020
:10534800aa109800bb109800a8089800b9089800ff
:10535800c2089800d308980041c0b30001487800fb
:10536800dacc2c00cbe423006a0098007b0098007c
:10537800080898001908980022089800330898002f
:105388000a002000ab4724004a0898005b089800f0
:10539800660898007708980026189800371898002b
:1053a80042189800531898006218980073189800cb
:1053b8000220980013209800262098003720980093
:1053c8000402e800a00ab000e20f5200cfff3a0042
:1053d80060002000b08e880050002000c08e880039
:1053e80030002000d08e8800200020000094880023
:1053f80010002000109488004000200020948800ad
:105408004f0778004f06be004f05be004f04be0090
:10541800000006001200980003087800000006004b
:10542800e68747008e1f78008180fb00010040005e
:105438006687570090409000015f7800104f780011
:10544800b0409000c1ff9f0020409000d0ff9f0017
:105458005fb89700efb897004f0778006f00b1006a
